:100000000C942A000C9410020C9410020C94100210
:100010000C9410020C9410020C9410020C94100218
:100020000C9410020C9410020C9410020C946300B7
:100030000C9410020C9410020C9410020C941002F8
:100040000C9410020C9410020C9410020C941002E8
:100050000C94100211241FBECFE5D8E0DEBFCDBF47
:0C0060000E94A8000C943400F894FFCF1C
:10006C0060EF8BE390E00E940C0241E063E088E3D8
:10007C0090E00E94C80041E061E088E390E00E94BB
:10008C00C80041E062E088E390E00E94C8008FE382
:10009C009CE90197F1F700C0000082E00E94220168
:1000AC0086E00E9422018CE00E9422018FE39CE9F1
:0A00BC000197F1F700C0000008955D
:1000C6001F920F920FB60F9211242F933F934F93C7
:1000D6005F936F937F938F939F93AF93BF93EF93AA
:1000E600FF930E94AF01FF91EF91BF91AF919F9156
:1000F6008F917F916F915F914F913F912F910F90CB
:080106000FBE0F901F90189529
:10010E00813051F028F0823071F0833099F015C0B3
:10011E0083B7877B83BF11C083B7877B83BF83B7CA
:10012E00806483BF0AC083B7877B83BF83B7886031
:10013E0083BF03C083B7886483BF83B7682B63BF55
:02014E00089512
:100150008AEF82BF67E080E00E94870080E00E9413
:10016000DE010E9436000E9476010E948901789487
:100170000E94020282B790E00E943F012FEF85EAC1
:100180009EE0215080409040E1F700C00000F0CF99
:10019000442319F0413079F00895E82FF92F229186
:1001A00081E090E002C0880F991F6A95E2F7809580
:1001B000822380830895E82FF92F229181E090E037
:1001C00002C0880F991F6A95E2F7822B80830895F9
:1001D000442371F04130C1F4FC01408121E030E062
:1001E00002C0220F331F6A95E2F7242B2083089563
:1001F000FC01408121E030E002C0220F331F6A95EC
:0A020000E2F72095242320830895DF
:10020A00CF93C82F41E061E088E390E00E94E800C4
:10021A008BB38F709C2F907F892B8BBB0E949C0184
:10022A008BB3282F2F7030E1C39FC0011124822B7A
:0A023A008BBB0E949C01CF91089538
:10024400CF93C82F40E061E088E390E00E94E8008B
:100254008BB38F709C2F907F892B8BBB0E949C014A
:100264008BB3282F2F7030E1C39FC0011124822B40
:0A0274008BBB0E949C01CF910895FE
:10027E00CF93DF93CDB7DEB72B970FB6F894DEBFD3
:10028E000FBECDBF4AE0BE016F5F7F4F0E94F701E8
:10029E00CE0101960E94CF012B960FB6F894DEBFC9
:0A02AE000FBECDBFDF91CF91089580
:1002B800BB27FB015527AA27880F991FAA1FA41738
:1002C80010F0A41B83955051B9F7A05DAA3308F02C
:1002D800A95DA193009779F7B111B1931192CB0160
:0402E8000C94BF01B2
:1002EC0041E062E085E390E00E94C80041E067E0F5
:1002FC0085E390E00E94C80041E063E082E390E077
:06030C000E94C8000895E4
:1003120040E062E085E390E00E94E80040E067E0B0
:1003220085E390E00E94E80040E063E082E390E031
:060332000E94E80008959E
:1003380041E063E088E390E00E94E80087EC90E009
:100348000197F1F700C0000040E063E088E390E027
:060358000E94E800089578
:10035E0062E085E390E00E94EB0167E085E390E0C8
:10036E000E94EB0163E082E390E00E94EB010895AE
:10037E00DC01FC01672F71917723E1F7329704C0FE
:10038E007C916D9370836291AE17BF07C8F3089589
:10039E00CF93DF93EC018881882331F021960E9460
:0E03AE00050189918111FBCFDF91CF91089558
:1003BC00882319F0813029F0089589B7816089BFAD
:0A03CC00089589B7826089BF089583
:1003D600FC01408121E030E002C0220F331F6A9504
:0803E600E2F7242720830895AB
:1003EE00BB274A3031F4992322F4BDE290958195D2
:0603FE009F4F0C945D010D
:1004040081E00E9422018FE39CE90197F1F700C08B
:040414000000089547
:080418000197FC0160830895C7
:040420000C94000038
:00000001FF
