:100000000C942E000C9416020C9416020C941602FA
:100010000C9416020C9416020C9416020C94160200
:100020000C9416020C9416020C9416020C941602F0
:100030000C9416020C9416020C9416020C941602E0
:100040000C9416020C9416020C9416020C941602D0
:100050000C941602006000770004300011241FBECB
:10006000CFE5D8E0DEBFCDBFE4E5F0E040E017C06B
:10007000B591A59135912591059107FD0CC09591FC
:100080008591EF01F92FE82F05900D92A217B30784
:10009000D9F7FE0104C01D92A217B307E1F7EB35B3
:1000A000F40731F70E9458000C945600F894FFCFE3
:1000B0000E94D3010E94C0018FE39CE90197F1F7F0
:1000C00000C000000E949C009FEF20E782E091505A
:1000D00020408040E1F700C0000080E00E94C9009D
:1000E000882391F082E00E948A010E9408028CE637
:1000F00090E00E94F9019FEF23EC89E091502040AD
:100100008040E1F700C0000086E00E94C90088231B
:1001100021F382E00E94A5010E94080280E690E09F
:100120000E94F9019FEF23EC89E09150204080402C
:08013000E1F700C00000D1CF8F
:1001380060EF8BE390E00E94120241E063E088E305
:1001480090E00E94F40041E061E088E390E00E94C2
:10015800F40041E062E088E390E00E94F4008FE35D
:100168009CE90197F1F700C0000082E00E946D0150
:1001780086E00E946D018CE00E946D018FE39CE98E
:0A0188000197F1F700C00000089590
:10019200CF93DF931F92CDB7DEB719828230B1F0D1
:1001A200863059F081111AC0AE014F5F5F4F60E097
:1001B20088E390E00E94140111C0AE014F5F5F4FCF
:1001C20066E082E390E00E94140108C0AE014F5F36
:1001D2005F4F62E082E390E00E94140189810F90F8
:0601E200DF91CF910895AA
:1001E800442319F0413079F00895E82FF92F22912E
:1001F80081E090E002C0880F991F6A95E2F7809528
:10020800822380830895E82FF92F229181E090E0DE
:1002180002C0880F991F6A95E2F7822B80830895A0
:10022800FC013297208130E0062E02C035952795D3
:100238000A94E2F720FF04C021E0FA01208302C0FB
:10024800FA011082FC013297808190E002C09595F6
:0E02580087956A95E2F78170FA018083089518
:10026600442371F04130C1F4FC01408121E030E0CB
:1002760002C0220F331F6A95E2F7242B20830895CC
:10028600FC01408121E030E002C0220F331F6A9555
:0A029600E2F7209524232083089549
:1002A000CF93C82F41E061E088E390E00E943301E2
:1002B0008BB38F709C2F907F892B8BBB0E94E601A4
:1002C0008BB3282F2F7030E1C39FC0011124822BE4
:0A02D0008BBB0E94E601CF91089558
:1002DA00CF93C82F40E061E088E390E00E943301A9
:1002EA008BB38F709C2F907F892B8BBB0E94E6016A
:1002FA008BB3282F2F7030E1C39FC0011124822BAA
:0A030A008BBB0E94E601CF9108951D
:10031400833091F0873049F08230A1F441E062E00B
:1003240085E390E00E943301089541E067E085E3AE
:1003340090E00E943301089541E063E082E390E09D
:060344000E943301089540
:10034A00833091F0873049F08230A1F440E062E0D6
:10035A0085E390E00E943301089540E067E085E379
:10036A0090E00E943301089540E063E082E390E068
:06037A000E94330108950A
:1003800041E062E085E390E00E94F40041E067E034
:1003900085E390E00E94F40041E063E082E390E0B6
:0603A0000E94F400089524
:1003A60040E060E088E390E00E94F40040E066E010
:1003B60082E390E00E94F40040E062E082E390E095
:0603C6000E94F4000895FE
:1003CC0041E063E088E390E00E94330187EC90E029
:1003DC000197F1F700C0000040E063E088E390E093
:0603EC000E943301089598
:1003F200CF93DF93EC018881882331F021960E940C
:0E040200500189918111FBCFDF91CF910895B8
:1004100081E00E946D018FE39CE90197F1F700C034
:04042000000008953B
:080424000197FC0160830895BB
:04042C000C9400002C
:0C0430004C454430206973204F464600C4
:0B043C004C454430206973204F4E00F7
:00000001FF
