:100000000C942A000C942A010C942A010C942A01C5
:100010000C942A010C942A010C942A010C942A01B4
:100020000C942A010C942A010C942A010C942A01A4
:100030000C942A010C942A010C942A010C942A0194
:100040000C942A010C942A010C942A010C942A0184
:100050000C942A0111241FBECFE5D8E0DEBFCDBF2E
:0C0060000E9419010C943400F894FFCFAA
:10006C00CF93DF931F92CDB7DEB719828230B1F0F8
:10007C00863059F081111AC0AE014F5F5F4F60E0BE
:10008C0088E390E00E94810011C0AE014F5F5F4F8A
:10009C0066E082E390E00E94810008C0AE014F5FF1
:1000AC005F4F62E082E390E00E94810089810F90B3
:0600BC00DF91CF910895D1
:1000C200442319F0413079F00895E82FF92F229155
:1000D20081E090E002C0880F991F6A95E2F780954F
:1000E200822380830895E82FF92F229181E090E006
:1000F20002C0880F991F6A95E2F7822B80830895C8
:10010200FC013297208130E0062E02C035952795FA
:100112000A94E2F720FF04C021E0FA01208302C022
:10012200FA011082FC013297808190E002C095951D
:0E01320087956A95E2F78170FA01808308953F
:10014000442371F04130C1F4FC01408121E030E0F2
:1001500002C0220F331F6A95E2F7242B20830895F3
:10016000FC01408121E030E002C0220F331F6A957C
:0A017000E2F7209524232083089570
:10017A00833091F0873049F08230A1F441E062E0A7
:10018A0085E390E00E94A000089541E067E085E3DE
:10019A0090E00E94A000089541E063E082E390E0CD
:0601AA000E94A000089570
:1001B000833091F0873049F08230A1F440E062E072
:1001C00085E390E00E94A000089540E067E085E3A9
:1001D00090E00E94A000089540E063E082E390E098
:0601E0000E94A00008953A
:1001E60041E062E085E390E00E94610041E067E063
:1001F60085E390E00E94610041E063E082E390E0E5
:060206000E946100089552
:10020C0040E060E088E390E00E94610040E066E03E
:10021C0082E390E00E94610040E062E082E390E0C3
:06022C000E94610008952C
:100232000E9406010E94F30080E00E94360088239B
:1002420021F083E00E94BD00F7CF83E00E94D80036
:02025200F3CFE8
:040254000C94000006
:00000001FF
