:100000000C942A000C9436030C9436030C9436039B
:100010000C9436030C9436030C9436030C9436037C
:100020000C9436030C9436030C9436030C9436036C
:100030000C9436030C9436030C9436030C9436035C
:100040000C9436030C9436030C9436030C9436034C
:100050000C94360311241FBECFE5D8E0DEBFCDBF20
:0C0060000E94A9000C943400F894FFCF1B
:10006C006D56202843483029006D562028434831CE
:02007C00290059
:10007E000FC00E94170338F00E941E0320F0952334
:10008E0011F00C9425030C94330311240C941103DA
:10009E000E94980170F3959FC1F3950F50E0551F84
:1000AE00629FF001729FBB27F00DB11D639FAA27BF
:1000BE00F00DB11DAA1F649F6627B00DA11D661F0E
:1000CE00829F2227B00DA11D621F739FB00DA11D2F
:1000DE00621F839FA00D611D221F749F3327A00DE9
:1000EE00611D231F849F600D211D822F762F6A2F85
:1000FE0011249F5750409AF0F1F088234AF0EE0FEA
:10010E00FF1FBB1F661F771F881F91505040A9F716
:10011E009E3F510580F00C9425030C9411035F3F14
:10012E00E4F3983ED4F3869577956795B795F79552
:10013E00E7959F5FC1F7FE2B880F911D96958795CA
:04014E0097F9089580
:10015200CF93DF93CDB7DEB762970FB6F894DEBFC9
:100162000FBECDBF2CE630E040E089E0F901DE01B0
:100172001196742F0E94CE0225E730E040E089E01C
:10018200F901DE011A96742F0E94CE020E946B01C1
:1001920047E061E080E00E948D0280E00E94FB0265
:1001A2000E943A030E94F1020E947B020E943102E5
:1001B200CE0101960E94BF022FEF89E698E12150FD
:1001C20080409040E1F700C0000081E00E94FB0205
:1001D2000E943A030E94F1020E947B020E943102B5
:1001E200CE010A960E94BF022FEF89E698E12150C4
:0C01F20080409040E1F700C00000CFCF3B
:1001FE00E89409C097FB3EF49095809570956195B3
:10020E007F4F8F4F9F4F9923A9F0F92F96E9BB2768
:10021E009395F695879577956795B795F111F8CFE4
:10022E00FAF4BB0F11F460FF1BC06F5F7F4F8F4F4F
:10023E009F4F16C0882311F096E911C0772321F045
:10024E009EE8872F762F05C0662371F096E8862FDD
:10025E0070E060E02AF09A95660F771F881FDAF734
:0A026E00880F9695879597F908957B
:100278000E94A00188F09F5798F0B92F9927B7518D
:10028800B0F0E1F0660F771F881F991F1AF0BA9532
:10029800C9F714C0B13091F00E941003B1E008957D
:1002A8000C941003672F782F8827B85F39F0B93F6F
:1002B800CCF3869577956795B395D9F73EF49095E5
:0E02C8008095709561957F4F8F4F9F4F0895E1
:1002D60060EF8BE390E00E942B0341E063E088E34C
:1002E60090E00E94BA0141E061E088E390E00E945C
:1002F600BA0141E062E088E390E00E94BA018FE330
:100306009CE90197F1F700C0000082E00E94140208
:1003160086E00E9414028CE00E9414028FE39CE99E
:0A0326000197F1F700C000000895F0
:1003300057FD9058440F551F59F05F3F71F0479596
:10034000880F97FB991F61F09F3F79F0879508957B
:10035000121613061406551FF2CF4695F1DF08C09A
:10036000161617061806991FF1CF869571056105B7
:040370000894089550
:10037400442319F0413079F00895E82FF92F2291A0
:1003840081E090E002C0880F991F6A95E2F780959A
:10039400822380830895E82FF92F229181E090E051
:1003A40002C0880F991F6A95E2F7822B8083089513
:1003B400442371F04130C1F4FC01408121E030E07C
:1003C40002C0220F331F6A95E2F7242B208308957D
:1003D400FC01408121E030E002C0220F331F6A9506
:0A03E400E2F72095242320830895FA
:1003EE00CF93C82F41E061E088E390E00E94DA01EC
:1003FE008BB38F709C2F907F892B8BBB0E946802D2
:10040E008BB3282F2F7030E1C39FC0011124822B94
:0A041E008BBB0E946802CF91089585
:10042800CF93C82F40E061E088E390E00E94DA01B2
:100438008BB38F709C2F907F892B8BBB0E94680297
:100448008BB3282F2F7030E1C39FC0011124822B5A
:0A0458008BBB0E946802CF9108954B
:10046200CF93DF93CDB7DEB72B970FB6F894DEBFED
:100472000FBECDBF4AE0BE016F5F7F4F0E94E60212
:10048200CE0101960E94BF022B960FB6F894DEBFF2
:0A0492000FBECDBFDF91CF9108959A
:10049C00BB27FB015527AA27880F991FAA1FA41752
:1004AC0010F0A41B83955051B9F7A05DAA3308F046
:1004BC00A95DA193009779F7B111B1931192CB017A
:0404CC000C94AF02DB
:1004D00041E063E088E390E00E94DA0187EC90E07D
:1004E0000197F1F700C0000040E063E088E390E08E
:0604F0000E94DA010895EC
:1004F600349BFECF64B175B180E090E00E94FF00AE
:100506002AE137E64CE950E40E942F030E940903D2
:04051600CB01089578
:10051A00CF93DF93D62FC42F0E94FB028D2F0E9408
:10052A00DB028C2F0E9402030E943803DF91CF91D5
:02053A00089522
:10053C00092E0394000C11F4882352F0BB0F40F4E5
:10054C00BF2B11F460FF04C06F5F7F4F8F4F9F4F25
:02055C00089500
:10055E00DC01FC01672F71917723E1F7329704C01C
:10056E007C916D9370836291AE17BF07C8F30895A7
:10057E00CF93DF93EC018881882331F021960E947E
:0E058E00F70189918111FBCFDF91CF91089584
:10059C00992777FD05C005900D920197E1F7089515
:0A05AC0001900D920197E1F7089508
:1005B60097B19F7397B927B130E4839FC001112487
:0605C600822B87B90895A5
:1005CC00BB274A3031F4992322F4BDE290958195F2
:0605DC009F4F0C944F023A
:1005E20081E00E9414028FE39CE90197F1F700C0B9
:0405F2000000089568
:0E05F60097B1907E97B997B1892B87B9089578
:0E06040096B1987F96B996B1892B86B9089564
:0E0612000E943C016894B1110C9411030895EC
:0E062000E894BB2766277727CB0197F908954A
:0E062E0000240A9416161706180609060895E9
:0E063C0000240A9412161306140605060895EB
:0C064A0097F99F6780E870E060E0089579
:080656000197FC016083089587
:08065E000E943F000C949E0273
:060666009FEF80EC0895F7
:04066C000C940000EA
:04067000379A089518
:04067400369A089515
:00000001FF
