:100000000C942A000C9457010C948B000C9457010B
:100010000C9457010C9457010C9457010C94570100
:100020000C9457010C9457010C9457010C945701F0
:100030000C9457010C9457010C9457010C945701E0
:100040000C9457010C9457010C9457010C945701D0
:100050000C94570111241FBECFE5D8E0DEBFCDBF01
:0C0060000E94EF000C943400F894FFCFD5
:10006C00CF93DF931F92CDB7DEB719828230B1F0F8
:10007C00863059F081111AC0AE014F5F5F4F60E0BE
:10008C0088E390E00E94D00011C0AE014F5F5F4F3B
:10009C0066E082E390E00E94D00008C0AE014F5FA2
:1000AC005F4F62E082E390E00E94D00089810F9064
:0600BC00DF91CF910895D1
:1000C2008130910561F082309105A1F0892B09F50B
:1000D20085B7682B65BF8BB780648BBF089585B7E2
:1000E200660F771F660F771F682B65BF8BB7806817
:1000F2008BBF089584B7002476956795079476950B
:1001020067950794762F602D682B64BF8BB780624A
:040112008BBF089502
:100116001F920F920FB60F9211242F933F934F9376
:100126005F936F937F938F939F93AF93BF93EF9359
:10013600FF9387E00E940D01FF91EF91BF91AF9170
:100146009F918F917F916F915F914F913F912F91E9
:0A0156000F900FBE0F901F90189538
:10016000442319F0413079F00895E82FF92F2291B6
:1001700081E090E002C0880F991F6A95E2F78095B0
:10018000822380830895E82FF92F229181E090E067
:1001900002C0880F991F6A95E2F7822B8083089529
:1001A000FC013297208130E0062E02C0359527955C
:1001B0000A94E2F720FF04C021E0FA01208302C084
:1001C000FA011082FC013297808190E002C095957F
:0E01D00087956A95E2F78170FA0180830895A1
:1001DE000E9425010E94380162E070E081E090E00B
:1001EE000E9461000E94590180E00E94360088231F
:1001FE00D9F382E00E940D012FEF89E698E121509C
:0C020E0080409040E1F700C00000EECFFF
:10021A00833081F0873041F0823089F462E085E3EF
:10022A0090E00E944B01089567E085E390E00E9408
:10023A004B01089563E082E390E00E944B01089528
:10024A0041E062E085E390E00E94B00041E067E0AF
:10025A0085E390E00E94B00041E063E082E390E031
:06026A000E94B00008959F
:1002700040E060E088E390E00E94B00040E066E08B
:1002800082E390E00E94B00040E062E082E390E010
:060290000E94B000089579
:10029600FC01408121E030E002C0220F331F6A9545
:0802A600E2F7242720830895EC
:0402AE000C940000AC
:0402B200789408959F
:00000001FF
