:100000000C942A000C94C8010C94C8010C94C801EB
:100010000C94C8010C94C8010C94C8010C94C8013C
:100020000C94C8010C94C8010C94C8010C94C8012C
:100030000C94C8010C94C8010C94C8010C94C8011C
:100040000C94C8010C94C8010C94C8010C94C8010C
:100050000C94C80111241FBECFE5D8E0DEBFCDBF90
:10006000E4E5F0E040E017C0B591A5913591259108
:10007000059107FD0CC095918591EF01F92FE82FAF
:1000800005900D92A217B307D9F7FE0104C01D9287
:10009000A217B307E1F7E435F40731F70E945A01DC
:0800A0000C945200F894FFCF0C
:1000A80060EF8BE390E00E94C00141E063E088E3E9
:1000B80090E00E94AC0041E061E088E390E00E949B
:1000C800AC0041E062E088E390E00E94AC008FE37E
:1000D8009CE90197F1F700C0000082E00E94060148
:1000E80086E00E9406018CE00E9406018FE39CE9ED
:0A00F8000197F1F700C00000089521
:1001020041E064E08BE390E00E94AC0041E065E0F6
:100112008BE390E00E94AC0041E066E08BE390E06C
:100122000E94AC0041E067E08BE390E00E94AC00EB
:1001320041E063E088E390E00E94AC0041E061E0CE
:1001420088E390E00E94AC0041E062E088E390E046
:060152000E94AC000895BC
:10015800442319F0413079F00895E82FF92F2291BE
:1001680081E090E002C0880F991F6A95E2F78095B8
:10017800822380830895E82FF92F229181E090E06F
:1001880002C0880F991F6A95E2F7822B8083089531
:10019800442371F04130C1F4FC01408121E030E09A
:1001A80002C0220F331F6A95E2F7242B208308959B
:1001B800FC01408121E030E002C0220F331F6A9524
:0A01C800E2F7209524232083089518
:1001D200CF93C82F41E061E088E390E00E94CC0019
:1001E2008BB38F709C2F907F892B8BBB0E948301D6
:1001F2008BB3282F2F7030E1C39FC0011124822BB3
:0A0202008BBB0E948301CF91089589
:10020C00CF93C82F40E061E088E390E00E94CC00DF
:10021C008BB38F709C2F907F892B8BBB0E9483019B
:10022C008BB3282F2F7030E1C39FC0011124822B78
:0A023C008BBB0E948301CF9108954F
:10024600CF93DF93CDB7DEB72B970FB6F894DEBF0B
:100256000FBECDBF4AE0BE016F5F7F4F0E94B50162
:10026600CE0101960E94A6012B960FB6F894DEBF2A
:0A0276000FBECDBFDF91CF910895B8
:10028000BB27FB015527AA27880F991FAA1FA41770
:1002900010F0A41B83955051B9F7A05DAA3308F064
:1002A000A95DA193009779F7B111B1931192CB0198
:0402B0000C94960113
:1002B4000E9481000E9470010E94540081E490E039
:1002C4000E9423012FEF89E698E12150804090405D
:0C02D400E1F700C000000E94C401F0CF60
:1002E00040E060E088E390E00E94AC0040E066E01F
:1002F00082E390E00E94AC0040E062E082E390E0A4
:060300000E94AC0008950C
:1003060041E063E088E390E00E94CC0087EC90E057
:100316000197F1F700C0000040E063E088E390E059
:060326000E94CC000895C6
:10032C00DC01FC01672F71917723E1F7329704C050
:10033C007C916D9370836291AE17BF07C8F30895DB
:10034C00CF93DF93EC018881882331F021960E94B2
:0E035C00E90089918111FBCFDF91CF910895C7
:10036A00BB274A3031F4992322F4BDE29095819556
:06037A009F4F0C944101AD
:080380000197FC016083089560
:0803880081E00E9406010895C6
:040390000C940000C9
:00000001FF
