:100000000C942D000C9401090C9401090C94010925
:100010000C9401090C9401090C9401090C94FE083C
:100020000C9401090C9401090C9401090C94010928
:100030000C9401090C9401090C9401090C94010918
:100040000C9401090C9401090C9401090C94010908
:100050000C940109006006A8800011241FBECFE5A2
:10006000D8E0DEBFCDBFE4E5F0E040E017C0B591D9
:10007000A59135912591059107FD0CC0959185912C
:10008000EF01F92FE82F05900D92A217B307D9F7CA
:10009000FE0104C01D92A217B307E1F7E935F4078A
:0E00A00031F70E94BC070C945500F894FFCF76
:0600AE0054310054320041
:0600B40049444C45000325
:1000BA002F923F924F925F926F927F928F92AF925E
:1000CA00BF92CF92DF92EF920F931F93CF93DF935A
:1000DA001C013A01862E59012801C9010E949F0379
:1000EA008C01892B09F417C186E290E00E949F03D4
:1000FA00EC01892B89F086E2FE0111928A95E9F7D3
:10010A00188F0F8BF1E0AF1AB1080A0D1B1D61148D
:10011A007104810429F430C0C8010E94D706FBC0CB
:10012A00F301849187FC8081898FF301849187FC94
:10013A008081882301F1AE01465E5F4FA82DC3017D
:10014A000196A11D28E0620E711C811C2A2FFC0158
:10015A007491A7FD7081FA017193AF01E82FF92F0D
:10016A000196A11D349127FD3081332321F0861594
:10017A009705A80559F718A2F3E0FE1520F40F2EEB
:10018A00F3E0EF2EF02DEE8A5E0122E0A20EB11C02
:10019A00C5010E94FA08CE010C960E94FA08D98776
:1001AA00C88784E090E08E1991099D878C87DB8B44
:1001BA00CA8BA201B101C8010E94520499838883A3
:1001CA00C114D10419F0F601D183C0830FB6F89493
:1001DA000F928091A6068F5F8093A60680919E0655
:1001EA0090919F06892BA9F5D0939F06C0939E06EE
:1001FA008091A6068130E9F58CE396E00E94C20858
:10020A0085E496E00E94C2088EE496E00E94C20845
:10021A0087E596E00E94C2088BE796E00E94C20832
:10022A0082E796E00E94C20889E696E00E94C20828
:10023A0080E696E00E94C2088BE796E090939D06BE
:10024A0080939C0682E796E090939B0680939A0699
:10025A0010C08091A40681110CC0E0919E06F09115
:10026A009F0696898E89891720F0D0939F06C0939E
:10027A009E068091A1068F5F8093A1068E89909138
:10028A00A506981710F48093A50690E0FC01EE0FDE
:10029A00FF1FEE0FFF1FEE0FFF1F8E0F9F1FFC01A8
:1002AA00E45CF94F0180F281E02DFD83EC838481C7
:1002BA0095819F838E83A481B5811396BC92AE9259
:1002CA001297B582A482EE89F0E0CF01880F991FB8
:1002DA00880F991F880F991FE80FF91FE45CF94FDF
:1002EA00FB87EA8780818F5F80830F900FBE8091A2
:1002FA00A406882361F0E0919E06F0919F069689F4
:10030A008E89981730F40E94800581E005C081E04B
:10031A0003C081E001C08FEFDF91CF911F910F9150
:10032A00EF90DF90CF90BF90AF908F907F906F90BB
:0A033A005F904F903F902F900895C0
:10034400EF92FF920F931F93CF93DF938091A006B8
:10035400811104C1C0919806D09199067E018FEF56
:10036400E81AF80AF0929906E0929806E114F1046A
:10037400B9F480919C0690919D0620919A06309143
:100384009B0630939D0620939C0690939B06809336
:100394009A068091A2068F5F8093A2060E94540859
:1003A4008091940690919506E816F90610F480E081
:1003B400B9C080E061E0E0919C06F0919D069081D7
:1003C400911107C02FEF3FEF3093950620939406C9
:1003D400A9C0E0919C06F0919D060580F681E02D70
:1003E4000680F781E02D22813381E216F30628F49A
:1003F400309395062093940695C0A285B3852481F5
:10040400358146815781E9015D834C83268137819B
:1004140044815581E9015B834A83AF014E5F5F4F9D
:1004240011962D913C9112972417350731F42681AA
:10043400378112963C932E931197138612869C91C2
:1004440091509C93A489B589109719F12685378515
:1004540000891189E9011D830C832089318906856E
:100464001785E9011B830A8311960D911C9112973C
:100474009F01245F3F4F0217130731F4208931890C
:1004840012963C932E931197158A148A9C9191503D
:100494009C9326899091A506921710F42093A506A3
:1004A40030E0D901AA0FBB1FAA0FBB1FAA0FBB1FA5
:1004B4002A0F3B1FD901A45CB94F11960D90BC9132
:1004C400A02DB583A48314962D913C911597378361
:1004D400268314962D913C911597E9015B834A83F9
:1004E40015965C934E931497A689B0E09D01220F54
:1004F400331F220F331F220F331FA20FB31FA45C1D
:10050400B94FB387A2879C919F5F9C93A0919E064D
:10051400B0919F06268956969C91921708F04BCF6E
:10052400862F49CFE0919E06F0919F06268930E000
:10053400F901EE0FFF1FEE0FFF1FEE0FFF1F2E0F2F
:100544003F1FF901E45CF94F9081923008F081E09B
:100554009091A306992361F081E00AC080919606E8
:10056400909197060196909397068093960680E063
:0E057400DF91CF911F910F91FF90EF900895AE
:100582001F93CF93DF930FB6F8940F928091A0063A
:1005920081508093A0068091A0068111C6C08091EF
:1005A200A60681119BC0C4C0DB011596ED91FC919A
:1005B20016970680F781E02DA489B58986859785EF
:1005C20020893189EC013D832C838089918926859C
:1005D2003785EC013B832A83CF010C9611962D912E
:1005E2003C9112972817390731F480899189129624
:1005F2009C938E931197158A148A8C9181508C93B7
:10060200A285B3858481958126813781EC013D8362
:100612002C838681978124813581EC013B832A8357
:100622009F012E5F3F4F11968D919C9112978217D9
:10063200930731F48681978112969C938E9311973A
:10064200138612868C9181508C9386899091A5068F
:10065200981710F48093A50690E0DC01AA0FBB1F47
:10066200AA0FBB1FAA0FBB1F8A0F9B1FDC01A45C32
:10067200B94F11960D90BC91A02DB583A483149609
:100682008D919C9115979783868314968D919C9159
:100692001597EC013B832A8315963C932E9314976E
:1006A200A689B0E0CD01880F991F880F991F880F86
:1006B200991FA80FB91FA45CB94FB387A2878C9169
:1006C2008F5F8C93A0919E06B0919F069689569655
:1006D2008C91981740F04093A30605C0E0E0F0E04B
:1006E20069E676E041E0DB018C9181115DCFEF2B71
:1006F20011F00E945408C0919606D0919706209757
:1007020061F011E00E94A20181111093A3062197CA
:10071200C9F710929706109296068091A306882335
:1007220031F00E94800581E003C080E001C080E0DA
:0C0732000F900FBEDF91CF911F91089532
:10073E00EF92FF920F931F93CF93DF93EC010E94E2
:10074E00F0088091900690919106892B11F5E4E8BE
:10075E00F6E0A0E6B0E0B183A08313821282E8E354
:10076E00F6E0F0939106E0939006138212821182C6
:10077E00108288ED95E013969C938E931297ED93CD
:10078E00FC9390938D0680938C0690938F068093A6
:10079E008E06CE0101978A3F9F4F08F067C09E01DB
:1007AE002B5F3F4FCB5FDF47C130D04808F461C0AD
:1007BE0000918E0610918F060217130708F45CC085
:1007CE00C0918406D0918506E4E8F6E002C0FE01F1
:1007DE00EC018A819B818217930720F4888199818D
:1007EE000097A9F78091900690919106C817D907A6
:1007FE0009F445C0E080F18084E0E80EF11C8881A8
:10080E009981918380834A815B81421B530B4930CE
:10081E00510550F0CE01820F931FFC01538342838A
:10082E003B832A830E94D9058A819B81081B190B61
:10083E0010938F0600938E0620918C0630918D06B4
:10084E000217130720F410938D0600938C06906800
:10085E009B838A831982188280918A0690918B06D7
:10086E00019690938B0680938A060BC0E12CF12C97
:10087E0008C0E12CF12C05C0E12CF12C02C0E12CBA
:10088E00F12C0E94C102C701DF91CF911F910F91F0
:06089E00FF90EF900895A9
:1008A40031E1FC013083319722E220833197A3E3C5
:1008B400A083319760833197708331971082319789
:1008C40060E8608331971082319762E060833197EA
:1008D40063E06083319764E06083319765E060830F
:1008E400319766E06083319767E06083319768E011
:1008F4006083319769E06083319760E16083319769
:100904003083319732E13083319733E1308331974B
:1009140034E13083319735E13083319736E13083E8
:10092400319737E13083319738E13083319739E1BA
:100934003083319730E23083319731E2308331971D
:100944002083319723E2208331974083319750836A
:10095400319726E22083319727E22083319728E2DA
:100964002083319729E22083319720E32083319734
:0809740021E32083869708951A
:10097C008091A006882321F081E08093A30608953E
:10098C001092A3062091A506822F90E0FC01EE0F99
:10099C00FF1FEE0FFF1FEE0FFF1FE80FF91FE45CA8
:1009AC00F94F3081311111C02150822F90E0FC01A0
:1009BC00EE0FFF1FEE0FFF1FEE0FFF1FE80FF91FCB
:1009CC00E45CF94F3081332379F3AC01440F551FAC
:1009DC00440F551F440F551F480F591FDA01A45CD3
:1009EC00B94F1196ED91FC9112970280F381E02D95
:1009FC001296FC93EE931197415C594FE417F5074F
:100A0C0029F442815381FD0152834183FC01EE0F95
:100A1C00FF1FEE0FFF1FEE0FFF1F8E0F9F1FFC011E
:100A2C00E45CF94F0180F281E02D868197819093EF
:0C0A3C009F0680939E062093A506089557
:100A48000F920FB6F8940F921F9211242F923F9293
:100A58004F925F926F927F928F929F92AF92BF92C6
:100A6800CF92DF92EF92FF920F931F932F933F93B2
:100A78004F935F936F937F938F939F93AF93BF939E
:100A8800CF93DF93EF93FF93A0919E06B0919F06BB
:100A98000DB60D920EB60D920E94A20181110E9410
:100AA800BE04A0919E06B0919F06CD91CDBFDD9169
:100AB800DEBFFF91EF91DF91CF91BF91AF919F91F1
:100AC8008F917F916F915F914F913F912F911F91DE
:100AD8000F91FF90EF90DF90CF90BF90AF909F90D5
:100AE8008F907F906F905F904F903F902F901F90C6
:080AF8000F900FBE0F9008954E
:100B00000F920FB6F8940F921F9211242F923F92DA
:100B10004F925F926F927F928F929F92AF92BF920D
:100B2000CF92DF92EF92FF920F931F932F933F93F9
:100B30004F935F936F937F938F939F93AF93BF93E5
:100B4000CF93DF93EF93FF93A0919E06B0919F0602
:100B50000DB60D920EB60D920E94BE04A0919E0697
:100B6000B0919F06CD91CDBFDD91DEBFFF91EF919A
:100B7000DF91CF91BF91AF919F918F917F916F91B5
:100B80005F914F913F912F911F910F91FF90EF90A7
:100B9000DF90CF90BF90AF909F908F907F906F909D
:100BA0005F904F903F902F901F900F900FBE0F902F
:020BB0000895A6
:100BB200CF93DF93DC01E4E8F6E001C0F901208184
:100BC20031812A173B07D0F382819381AF01480F0D
:100BD200591FA417B50749F412964D915C911397CA
:100BE200840F951F93838283DF0112968D919C91CE
:100BF2001397ED01C80FD91F2C173D07D9F4209187
:100C0200900630919106C217D30781F02A813B8169
:100C1200820F931F13969C938E931297C081D1815A
:100C22008881998111969C938E9307C01196DC93CB
:100C3200CE9303C011963C932E93AE17BF0711F0CB
:0A0C4200B183A083DF91CF910895E4
:100C4C000F931F93CF93DF93EC01009198061091B3
:100C5C00990680919E0690919F0602960E94950798
:100C6C00C00FD11FE0919E06F0919F06D383C283E3
:100C7C00C017D10768F460919E0670919F06809111
:100C8C009A0690919B066E5F7F4F0E94080717C0D3
:100C9C0060919E0670919F0680919C0690919D0696
:100CAC006E5F7F4F0E940807809194069091950685
:100CBC00C817D90720F4D0939506C0939406DF91FA
:080CCC00CF911F910F910895D3
:100CD40000E616E00F2EFCE3EF2EF6E0FF2EF02DDB
:100CE4008091A706882329F10FB6F8940F92D801B2
:100CF4001596ED91FC911697C681D781CE01029687
:100D04000E9495078091A60681508093A606809143
:100D1400A70681508093A7060F900FBE8F89988DE8
:100D24000E94D706CE010E94D7068091A7068111A2
:100D3400DBCFF7018081823098F20E948005D0CF0A
:100D44001BBC89EF8ABD8BE08EBD89B7806189BFEA
:100D5400A0919E06B0919F06CD91CDBFDD91DEBFDF
:100D6400FF91EF91DF91CF91BF91AF919F918F91BF
:100D74007F916F915F914F913F912F911F910F91AF
:100D8400FF90EF90DF90CF90BF90AF909F908F90A7
:100D94007F906F905F904F903F902F901F900F9097
:0A0DA4000FBE0F90089581E008953E
:100DAE00CF93DF93009751F1FC0134972281338169
:100DBE00332324F540815181452B01F5EF013F7717
:100DCE00338322830E94F00820918E0630918F0685
:100DDE008A819B81820F931F90938F0680938E063C
:100DEE00CE010E94D90580918806909189060196C0
:100DFE0090938906809388060E94C102DF91CF915D
:020E0E00089545
:100E1000CF93DF93EB01488159814F3F2FEF52076A
:100E200021F4FC01A781B0850DC0DC01139601C03F
:100E3000DF011296ED91FC911397208131814217C9
:100E40005307B0F71296ED91FC911397FB83EA8359
:100E5000D583C483BD83AC831396DC93CE93129762
:100E600099878887FC0120812F5F2083DF91CF91B4
:020E70000895E3
:100E7200CF92DF92EF920F931F930F2EF2E9CF2EB4
:100E8200F6E0DF2EF02DE12C00E010E025E530E069
:100E920044EB50E060E08AE696E00E945D0081301B
:100EA20081F4F8948FEF9FEF9093950680939406C8
:100EB20081E08093A40610929906109298060E94EF
:0E0EC200A2061F910F91EF90DF90CF90089540
:100ED00060EF8BE390E00E94F60841E063E088E376
:100EE00090E00E94DD0741E061E088E390E00E942D
:100EF000DD0741E062E088E390E00E94DD078FE3D8
:100F00009CE90197F1F700C0000082E00E943708D9
:100F100086E00E9437088CE00E9437088FE39CE946
:0A0F20000197F1F700C000000895EA
:100F2A00CF93DF93FC01A085B185C281D3818481EF
:100F3A0095819D838C83C481D581828193819B8392
:100F4A008A8311968D919C911297E817F90731F4CB
:100F5A008481958112969C938E931197118610869F
:0E0F6A008C9181508C938C91DF91CF910895E2
:100F78000E9468070E949C08C12CD12C0F2EF3E018
:100F8800EF2EF02D00E010E024E630E04EEA50E0CD
:100F980060E088EE98E00E945D0024E630E041EBD6
:100FA80050E060E080ED98E00E945D000E94390703
:020FB800FFCF69
:100FBA00442319F0413079F00895E82FF92F22914E
:100FCA0081E090E002C0880F991F6A95E2F7809548
:100FDA00822380830895E82FF92F229181E090E0FF
:100FEA0002C0880F991F6A95E2F7822B80830895C1
:100FFA00442371F04130C1F4FC01408121E030E02A
:10100A0002C0220F331F6A95E2F7242B208308952A
:10101A00FC01408121E030E002C0220F331F6A95B3
:0A102A00E2F72095242320830895A7
:10103400CF93C82F41E061E088E390E00E94FD0770
:101044008BB38F709C2F907F892B8BBB0E94AF0832
:101054008BB3282F2F7030E1C39FC0011124822B42
:0A1064008BBB0E94AF08CF910895E6
:10106E00CF93C82F40E061E088E390E00E94FD0737
:10107E008BB38F709C2F907F892B8BBB0E94AF08F8
:10108E008BB3282F2F7030E1C39FC0011124822B08
:0A109E008BBB0E94AF08CF910895AC
:1010A800E0919C06F0919D068081811107C08FEF29
:1010B8009FEF90939506809394060895E0919C067F
:1010C800F0919D060580F681E02D808191819093B5
:0810D80095068093940608952B
:1010E000833081F0873041F0823089F462E085E31B
:1010F00090E00E94DC08089567E085E390E00E949C
:10110000DC08089563E082E390E00E94DC08089523
:10111000CF93DF93EC01892B51F00E94F00860E03F
:10112000CE010E9426060E94C102811102C00E94C7
:081130008005DF91CF910895C5
:1011380041E062E085E390E00E94DD0741E067E07E
:1011480085E390E00E94DD0741E063E082E390E000
:061158000E94DD0708956E
:10115E0041E063E088E390E00E94FD0787EC90E0B9
:10116E000197F1F700C0000040E063E088E390E0F3
:06117E000E94FD07089528
:10118400FC010396928381832FEF3FEF3483238303
:0C119400968385839087878310820895DE
:1011A00084E690E00E94880882E40E941A0882E3A4
:0811B00090E00E948808F8CFCE
:1011B800FC01408121E030E002C0220F331F6A9514
:0811C800E2F7242720830895BB
:1011D00082E00E94700888EE93E00E948808F8CFB1
:0C11E0008091A0068F5F8093A006089508
:0811EC000197FC0160830895E6
:0811F400FC011186108608952C
:0611FC000E942405189575
:041202000C94000048
:00000001FF
