:100000000C942A000C94F2020C94F2020C94F2026A
:100010000C94F2020C94F2020C94F2020C94F20290
:100020000C94F2020C94F2020C94F2020C94F20280
:100030000C94F2020C94F2020C94F2020C94F20270
:100040000C94F2020C94F2020C94F2020C94F20260
:100050000C94F20211241FBECFE5D8E0DEBFCDBF65
:0C0060000E9439010C943400F894FFCF8A
:10006C000FC00E94D30238F00E94DA0220F09523D0
:10007C0011F00C94E1020C94EF0211240C94CD02BB
:10008C000E94610170F3959FC1F3950F50E0551FCD
:10009C00629FF001729FBB27F00DB11D639FAA27D1
:1000AC00F00DB11DAA1F649F6627B00DA11D661F20
:1000BC00829F2227B00DA11D621F739FB00DA11D41
:1000CC00621F839FA00D611D221F749F3327A00DFB
:1000DC00611D231F849F600D211D822F762F6A2F97
:1000EC0011249F5750409AF0F1F088234AF0EE0FFC
:1000FC00FF1FBB1F661F771F881F91505040A9F729
:10010C009E3F510580F00C94E1020C94CD025F3FB0
:10011C00E4F3983ED4F3869577956795B795F79564
:10012C00E7959F5FC1F7FE2B880F911D96958795DC
:04013C0097F9089592
:10014000E89409C097FB3EF4909580957095619571
:100150007F4F8F4F9F4F9923A9F0F92F96E9BB2727
:100160009395F695879577956795B795F111F8CFA3
:10017000FAF4BB0F11F460FF1BC06F5F7F4F8F4F0E
:100180009F4F16C0882311F096E911C0772321F004
:100190009EE8872F762F05C0662371F096E8862F9C
:1001A00070E060E02AF09A95660F771F881FDAF7F3
:0A01B000880F9695879597F908953A
:1001BA000E94690188F09F5798F0B92F9927B75183
:1001CA00B0F0E1F0660F771F881F991F1AF0BA95F1
:1001DA00C9F714C0B13091F00E94CC02B1E0089581
:1001EA000C94CC02672F782F8827B85F39F0B93F73
:1001FA00CCF3869577956795B395D9F73EF49095A4
:0E020A008095709561957F4F8F4F9F4F08959F
:1002180060EF8BE390E00E94E70241E063E088E34F
:1002280090E00E94830141E061E088E390E00E9451
:10023800830141E062E088E390E00E9483018FE35C
:100248009CE90197F1F700C0000082E00E94DD01FF
:1002580086E00E94DD018CE00E94DD018FE39CE9CD
:0A0268000197F1F700C000000895AF
:10027200CF93DF9300D01F92CDB7DEB78DE696E520
:100282009A8389831B820E940C0147E060E080E030
:100292000E9456022FEF80E792E02150804090406A
:1002A200E1F700C000000E94F6020E94AD020E9427
:1002B20044020E94FA01CE0101960E948802EACF0E
:1002C20057FD9058440F551F59F05F3F71F0479505
:1002D200880F97FB991F61F09F3F79F087950895EA
:1002E200121613061406551FF2CF4695F1DF08C009
:1002F200161617061806991FF1CF86957105610526
:0403020008940895BE
:10030600442319F0413079F00895E82FF92F22910E
:1003160081E090E002C0880F991F6A95E2F7809508
:10032600822380830895E82FF92F229181E090E0BF
:1003360002C0880F991F6A95E2F7822B8083089581
:10034600442371F04130C1F4FC01408121E030E0EA
:1003560002C0220F331F6A95E2F7242B20830895EB
:10036600FC01408121E030E002C0220F331F6A9574
:0A037600E2F7209524232083089568
:10038000CF93C82F41E061E088E390E00E94A30191
:100390008BB38F709C2F907F892B8BBB0E94310277
:1003A0008BB3282F2F7030E1C39FC0011124822B03
:0A03B0008BBB0E943102CF9108952B
:1003BA00CF93C82F40E061E088E390E00E94A30158
:1003CA008BB38F709C2F907F892B8BBB0E9431023D
:1003DA008BB3282F2F7030E1C39FC0011124822BC9
:0A03EA008BBB0E943102CF910895F1
:1003F400CF93DF93CDB7DEB72B970FB6F894DEBF5C
:100404000FBECDBF4AE0BE016F5F7F4F0E94A202C4
:10041400CE0101960E9488022B960FB6F894DEBF97
:0A0424000FBECDBFDF91CF91089508
:10042E00BB27FB015527AA27880F991FAA1FA417C0
:10043E0010F0A41B83955051B9F7A05DAA3308F0B4
:10044E00A95DA193009779F7B111B1931192CB01E8
:04045E000C94780280
:1004620041E063E088E390E00E94A30187EC90E022
:100472000197F1F700C0000040E063E088E390E0FC
:060482000E94A301089591
:10048800349BFECF64B175B180E090E00E94A0007B
:100498002AE137E64CE950E40E94EB020E94C502CB
:0404A800CB010895E7
:1004AC00CF93DF93D62FC42F0E94B7028D2F0E94BB
:1004BC0097028C2F0E94BE020E94F402DF91CF9112
:0204CC00089591
:1004CE00092E0394000C11F4882352F0BB0F40F454
:1004DE00BF2B11F460FF04C06F5F7F4F8F4F9F4F94
:0204EE0008956F
:1004F000DC01FC01672F71917723E1F7329704C08B
:100500007C916D9370836291AE17BF07C8F3089515
:10051000CF93DF93EC018881882331F021960E94EC
:0E052000C00189918111FBCFDF91CF91089529
:10052E0097B19F7397B927B130E4839FC00111240F
:06053E00822B87B908952D
:10054400BB274A3031F4992322F4BDE2909581957A
:060554009F4F0C941802F9
:10055A0081E00E94DD018FE39CE90197F1F700C079
:04056A0000000895F0
:0E056E0097B1907E97B997B1892B87B9089500
:0E057C0096B1987F96B996B1892B86B90895ED
:0E058A000E94DD006894B1110C94CD0208951A
:0E059800E894BB2766277727CB0197F90895D3
:0E05A60000240A941616170618060906089572
:0E05B40000240A941216130614060506089574
:0C05C20097F99F6780E870E060E0089502
:0805CE000197FC016083089510
:0805D6000E9436000C9467023C
:0605DE009FEF80EC089580
:0405E4000C94000073
:0405E800379A0895A1
:0405EC00369A08959E
:00000001FF
