:100000000C942A000C94AC010C94AC010C94AC013F
:100010000C94AC010C94AC010C94AC010C94AC01AC
:100020000C94AC010C94AC010C94AC010C94AC019C
:100030000C94AC010C94AC010C94AC010C94AC018C
:100040000C94AC010C94AC010C94AC010C94AC017C
:100050000C94AC0111241FBECFE5D8E0DEBFCDBFAC
:0C0060000E94ED000C943400F894FFCFD7
:10006C0094EA96BF06B607FEFDCF91B1987F983003
:10007C00F1F590EA93B994E896BF06B607FEFDCF6A
:10008C0091B1987F983121F091B1987F903289F598
:10009C0083B984E886BF06B607FEFDCF81B1887FA1
:1000AC00883221F081B1887F803329F584EA86BFBC
:1000BC0006B607FEFDCF81B1887F8031F1F481EA6D
:1000CC0083B984E886BF06B607FEFDCF81B1887F71
:1000DC008034A9F484EC86BF06B607FEFDCF81B14F
:1000EC00887F803571F483B194E996BF089581E0DF
:1000FC00089581E0089581E0089580E0089580E0FE
:06010C00089580E0089553
:1001120094EA96BF06B607FEFDCF91B1987F98305C
:1001220069F590EA93B994E896BF06B607FEFDCF4B
:1001320091B1987F983121F091B1987F9032F1F48A
:1001420083B984E886BF06B607FEFDCF81B1887FFA
:10015200883221F081B1887F803381F463B984E8E9
:1001620086BF06B607FEFDCF81B1887F883221F0B7
:0E01720081B1887F803311F484E986BF08953F
:1001800060EF8BE390E00E94A00141E063E088E330
:1001900090E00E94160141E061E088E390E00E9457
:1001A000160141E062E088E390E00E9416018FE3CF
:1001B0009CE90197F1F700C0000082E00E94700105
:1001C00086E00E9470018CE00E9470018FE39CE940
:0A01D0000197F1F700C00000089548
:1001DA000E94C0002FEF80E792E0215080409040BB
:1001EA00E1F700C000000E94A8012FEF89E698E11C
:1001FA00215080409040E1F700C0000061E480E7B0
:10020A000E9489002FEF83ED90E3215080409040B7
:10021A00E1F700C0000080E70E9436000E94530107
:02022A00EDCF16
:10022C00442319F0413079F00895E82FF92F2291E9
:10023C0081E090E002C0880F991F6A95E2F78095E3
:10024C00822380830895E82FF92F229181E090E09A
:10025C0002C0880F991F6A95E2F7822B808308955C
:10026C00442371F04130C1F4FC01408121E030E0C5
:10027C0002C0220F331F6A95E2F7242B20830895C6
:10028C00FC01408121E030E002C0220F331F6A954F
:0A029C00E2F7209524232083089543
:1002A600CF93C82F41E061E088E390E00E943601D9
:1002B6008BB38F709C2F907F892B8BBB0E948D01F7
:1002C6008BB3282F2F7030E1C39FC0011124822BDE
:0A02D6008BBB0E948D01CF910895AB
:1002E000CF93C82F40E061E088E390E00E943601A0
:1002F0008BB38F709C2F907F892B8BBB0E948D01BD
:100300008BB3282F2F7030E1C39FC0011124822BA3
:0A0310008BBB0E948D01CF91089570
:10031A0041E063E088E390E00E94360187EC90E0D8
:10032A000197F1F700C0000040E063E088E390E045
:06033A000E943601089547
:080340000197FC0160830895A0
:0803480098E490B982B9089510
:0803500086E00E94A40108955B
:040358000C94000001
:00000001FF
