:100000000C942A000C94A4030C94A4030C94A40351
:100010000C94A4030C94A4030C94A4030C94A403C4
:100020000C94A4030C94A4030C94A4030C94A403B4
:100030000C94A4030C94A4030C94A4030C94A403A4
:100040000C94A4030C94A4030C94A4030C94A40394
:100050000C94A40311241FBECFE5D8E0DEBFCDBFB2
:0C0060000E943B000C943400F894FFCF89
:0A006C006D56202020202843480094
:10007600CF93DF93CDB7DEB72C970FB6F894DEBFDC
:100086000FBECDBF2CE630E040E08AE0F901DE018C
:100096001196742F0E943C0389E290E09C878B871F
:1000A6000E947C010E94C30247E061E080E00E945A
:1000B600FB0210E086E00E94A901882381F01F5F01
:1000C60018300CF010E0812F0E9469032FEF85EAAB
:1000D6009EE0215080409040E1F700C0000082E0A1
:1000E6000E94A901882379F011500AF417E0812FA4
:1000F6000E9469032FEF85EA9EE0215080409040E0
:10010600E1F700C000000E94A8030E945F030E945E
:10011600E9020E948C02CE0101960E942D03812FD6
:10012600012E000C990B0E948C02CE010B960E94A8
:100136002D032FEF83EC99E0215080409040E1F7AA
:0601460000C00000B7CF6D
:10014C000FC00E94850338F00E948C0320F0952389
:10015C0011F00C9493030C94A10311240C947F03C1
:10016C000E94D40170F3959FC1F3950F50E0551F79
:10017C00629FF001729FBB27F00DB11D639FAA27F0
:10018C00F00DB11DAA1F649F6627B00DA11D661F3F
:10019C00829F2227B00DA11D621F739FB00DA11D60
:1001AC00621F839FA00D611D221F749F3327A00D1A
:1001BC00611D231F849F600D211D822F762F6A2FB6
:1001CC0011249F5750409AF0F1F088234AF0EE0F1B
:1001DC00FF1FBB1F661F771F881F91505040A9F748
:1001EC009E3F510580F00C9493030C947F035F3F6A
:1001FC00E4F3983ED4F3869577956795B795F79584
:10020C00E7959F5FC1F7FE2B880F911D96958795FB
:04021C0097F90895B1
:10022000E89409C097FB3EF4909580957095619590
:100230007F4F8F4F9F4F9923A9F0F92F96E9BB2746
:100240009395F695879577956795B795F111F8CFC2
:10025000FAF4BB0F11F460FF1BC06F5F7F4F8F4F2D
:100260009F4F16C0882311F096E911C0772321F023
:100270009EE8872F762F05C0662371F096E8862FBB
:1002800070E060E02AF09A95660F771F881FDAF712
:0A029000880F9695879597F9089559
:10029A000E94DC0188F09F5798F0B92F9927B7512F
:1002AA00B0F0E1F0660F771F881F991F1AF0BA9510
:1002BA00C9F714C0B13091F00E947E03B1E00895ED
:1002CA000C947E03672F782F8827B85F39F0B93FDF
:1002DA00CCF3869577956795B395D9F73EF49095C3
:0E02EA008095709561957F4F8F4F9F4F0895BF
:1002F80060EF85E390E00E94990341E062E085E3C6
:1003080090E00E94F60141E060E085E390E00E9401
:10031800F60141E061E085E390E00E94F6018FE399
:100328009CE90197F1F700C0000082E00E946F028B
:1003380086E00E946F028CE00E946F028FE39CE9C6
:0A0348000197F1F700C000000895CE
:10035200CF93DF931F92CDB7DEB719828230B1F00F
:10036200863059F081111AC0AE014F5F5F4F60E0D5
:1003720088E390E00E94160211C0AE014F5F5F4F0A
:1003820066E082E390E00E94160208C0AE014F5F71
:100392005F4F62E082E390E00E94160289810F9033
:0603A200DF91CF910895E8
:1003A80057FD9058440F551F59F05F3F71F047951E
:1003B800880F97FB991F61F09F3F79F08795089503
:1003C800121613061406551FF2CF4695F1DF08C022
:1003D800161617061806991FF1CF8695710561053F
:0403E80008940895D8
:1003EC00442319F0413079F00895E82FF92F229128
:1003FC0081E090E002C0880F991F6A95E2F7809522
:10040C00822380830895E82FF92F229181E090E0D8
:10041C0002C0880F991F6A95E2F7822B808308959A
:10042C00FC013297208130E0062E02C035952795CD
:10043C000A94E2F720FF04C021E0FA01208302C0F5
:10044C00FA011082FC013297808190E002C09595F0
:0E045C0087956A95E2F78170FA018083089512
:10046A00442371F04130C1F4FC01408121E030E0C5
:10047A0002C0220F331F6A95E2F7242B20830895C6
:10048A00FC01408121E030E002C0220F331F6A954F
:0A049A00E2F7209524232083089543
:1004A400CF93C82F41E060E085E390E00E943502DD
:1004B40085B38F709C2F907F892B85BB0E94D602B9
:1004C40085B3282F2F7030E1C39FC0011124822BE4
:0A04D40085BB0E94D602CF91089567
:1004DE00CF93C82F40E060E085E390E00E943502A4
:1004EE0085B38F709C2F907F892B85BB0E94D6027F
:1004FE0085B3282F2F7030E1C39FC0011124822BAA
:0A050E0085BB0E94D602CF9108952C
:10051800CF93DF93CDB7DEB72B970FB6F894DEBF36
:100528000FBECDBF4AE0BE016F5F7F4F0E945403EC
:10053800CE0101960E942D032B960FB6F894DEBFCC
:0A0548000FBECDBFDF91CF910895E3
:10055200BB27FB015527AA27880F991FAA1FA4179B
:1005620010F0A41B83955051B9F7A05DAA3308F08F
:10057200A95DA193009779F7B111B1931192CB01C3
:040582000C941D03B5
:1005860040E060E088E390E00E94F60140E066E02B
:1005960082E390E00E94F60140E062E082E390E0B0
:0605A6000E94F601089519
:1005AC0041E062E085E390E00E94350287EC90E048
:1005BC000197F1F700C0000040E062E085E390E0B5
:0605CC000E9435020895B3
:1005D200349BFECF64B175B180E090E00E941001BF
:1005E2002AE137E64CE950E40E949D030E9477031A
:0405F200CB0108959C
:1005F600CF93DF93D62FC42F0E9469038D2F0E94BD
:1006060049038C2F0E9470030E94A603DF91CF91AD
:02061600089545
:10061800092E0394000C11F4882352F0BB0F40F408
:10062800BF2B11F460FF04C06F5F7F4F8F4F9F4F48
:02063800089523
:10063A00DC01FC01672F71917723E1F7329704C03F
:10064A007C916D9370836291AE17BF07C8F30895CA
:10065A00CF93DF93EC018881882331F021960E94A1
:0E066A00520289918111FBCFDF91CF9108954B
:10067800992777FD05C005900D920197E1F7089538
:0A06880001900D920197E1F708952B
:1006920097B19F7397B927B130E4839FC0011124AA
:0606A200822B87B90895C8
:1006A800BB274A3031F4992322F4BDE29095819515
:0606B8009F4F0C94AA0202
:1006BE0081E00E946F028FE39CE90197F1F700C081
:0406CE00000008958B
:0E06D20097B1907E97B997B1892B87B908959B
:0E06E00096B1987F96B996B1892B86B9089588
:0E06EE000E944D016894B1110C947F03089591
:0E06FC00E894BB2766277727CB0197F908956E
:0E070A0000240A94161617061806090608950C
:0E07180000240A94121613061406050608950E
:0C07260097F99F6780E870E060E008959C
:080732000197FC0160830895AA
:08073A000E94A6000C940C03C0
:060742009FEF80EC08951A
:040748000C9400000D
:04074C00379A08953B
:04075000369A089538
:00000001FF
