:100000000C942A000C9466010C9466010C94660111
:100010000C9466010C9466010C9466010C946601C4
:100020000C9466010C9466010C9466010C946601B4
:100030000C9466010C9466010C9466010C946601A4
:100040000C9466010C9466010C9466010C94660194
:100050000C94660111241FBECFE5D8E0DEBFCDBFF2
:0C0060000E949E000C943400F894FFCF26
:10006C009DB120E2629FB0011124692B6DB98823E8
:10007C0001F1813029F56C9A2DB181E090E002C03C
:10008C00880F991F4A95E2F7822B8DB941E065E004
:10009C0088E390E00E94CA0041E067E088E390E0CA
:1000AC000E94CA0041E064E088E390E00E94CA002C
:1000BC0007C06C9841E066E088E390E00E94CA00BB
:1000CC008FEF90E722E0815090402040E1F700C094
:0600DC0000006E9A089579
:1000E20060EF8BE390E00E945E0141E063E088E311
:1000F20090E00E94CA0041E061E088E390E00E9443
:10010200CA0041E062E088E390E00E94CA008FE307
:100112009CE90197F1F700C0000082E00E942401EF
:1001220086E00E9424018CE00E9424018FE39CE976
:0A0132000197F1F700C000000895E6
:10013C000E94710043E060E081E00E9436002FEFE6
:10014C0089E698E1215080409040E1F700C0000022
:10015C0081E40E9462012FEF89E698E121508040F2
:10016C009040E1F700C00000CFB10E9454018C2FE9
:10017C000E9407012FEF89E698E1215080409040C2
:08018C00E1F700C00000E4CF20
:10019400442319F0413079F00895E82FF92F229182
:1001A40081E090E002C0880F991F6A95E2F780957C
:1001B400822380830895E82FF92F229181E090E033
:1001C40002C0880F991F6A95E2F7822B80830895F5
:1001D400442371F04130C1F4FC01408121E030E05E
:1001E40002C0220F331F6A95E2F7242B208308955F
:1001F400FC01408121E030E002C0220F331F6A95E8
:0A020400E2F72095242320830895DB
:10020E00CF93C82F41E061E088E390E00E94EA00BE
:10021E008BB38F709C2F907F892B8BBB0E944101DB
:10022E008BB3282F2F7030E1C39FC0011124822B76
:0A023E008BBB0E944101CF9108958F
:10024800CF93C82F40E061E088E390E00E94EA0085
:100258008BB38F709C2F907F892B8BBB0E944101A1
:100268008BB3282F2F7030E1C39FC0011124822B3C
:0A0278008BBB0E944101CF91089555
:1002820041E063E088E390E00E94EA0087EC90E0BE
:100292000197F1F700C0000040E063E088E390E0DE
:0602A2000E94EA0008952D
:1002A80081E00E9424018FE39CE90197F1F700C0E7
:0402B80000000895A5
:0802BC000197FC016083089525
:0802C4008FB9779BFECF08956E
:0402CC000C9400008E
:00000001FF
