:100000000C942D000C94EB0D0C94EB0D0C94EB0D5B
:100010000C94EB0D0C94EB0D0C94EB0D0C94E80D83
:100020000C94EB0D0C94EB0D0C94EB0D0C94EB0D70
:100030000C94EB0D0C94EB0D0C94EB0D0C94EB0D60
:100040000C94EB0D0C94EB0D0C94EB0D0C94EB0D50
:100050000C94EB0D006006B7800011241FBECFE5A5
:10006000D8E0DEBFCDBFE4E5F0E040E017C0B591D9
:10007000A59135912591059107FD0CC0959185912C
:10008000EF01F92FE82F05900D92A217B307D9F7CA
:10009000FE0104C01D92A217B307E1F7E935F4078A
:0E00A00031F70E94C30A0C945500F894FFCF6C
:0600AE0054310054320041
:0600B40049444C45000325
:1000BA002F923F924F925F926F927F928F92AF925E
:1000CA00BF92CF92DF92EF920F931F93CF93DF935A
:1000DA001C013A01862E59012801C9010E942B05EB
:1000EA008C01892B09F41CC186E290E00E942B0541
:1000FA00EC01892B89F086E2FE0111928A95E9F7D3
:10010A00188F0F8BF1E0AF1AB1080A0D1B1D61148D
:10011A007104810429F430C0C8010E94F50A00C1A3
:10012A00F301849187FC8081898FF301849187FC94
:10013A008081882301F1AE01465E5F4FA82DC3017D
:10014A000196A11D28E0620E711C811C2A2FFC0158
:10015A007491A7FD7081FA017193AF01E82FF92F0D
:10016A000196A11D349127FD3081332321F0861594
:10017A009705A80559F718A2F3E0FE1520F40F2EEB
:10018A00F3E0EF2EF02DEE8A5E0122E0A20EB11C02
:10019A00C5010E94E00DCE010C960E94E00DD987A0
:1001AA00C88784E090E08E1991099D878C87DB8B44
:1001BA00CA8BA201B101C8010E94050799838883ED
:1001CA00C114D10419F0F601D183C0830FB6F89493
:1001DA000F928091B5068F5F8093B5068091AD0628
:1001EA009091AE06892BD1F5D093AE06C093AD0699
:1001FA008091B506813009F041C08CE396E00E94F7
:10020A00A00D85E496E00E94A00D8EE496E00E947F
:10021A00A00D87E596E00E94A00D84E896E00E9472
:10022A00A00D8BE796E00E94A00D82E796E00E945F
:10023A00A00D89E696E00E94A00D80E696E00E9455
:10024A00A00D84E896E09093AC068093AB068BE70A
:10025A0096E09093AA068093A90610C08091B306EF
:10026A0081110CC0E091AD06F091AE0696898E8997
:10027A00891720F0D093AE06C093AD068091B006E0
:10028A008F5F8093B0068E899091B406981710F408
:10029A008093B40690E0FC01EE0FFF1FEE0FFF1FE4
:1002AA00EE0FFF1F8E0F9F1FFC01E45CF94F0180C8
:1002BA00F281E02DFD83EC83848195819F838E8377
:1002CA00A481B5811396BC92AE921297B582A4828C
:1002DA00EE89F0E0CF01880F991F880F991F880FC8
:1002EA00991FE80FF91FE45CF94FFB87EA878081C1
:1002FA008F5F80830F900FBE8091B306882361F0D1
:10030A00E091AD06F091AE0696898E89981730F481
:10031A000E94970881E005C081E003C081E001C026
:10032A008FEFDF91CF911F910F91EF90DF90CF90D8
:10033A00BF90AF908F907F906F905F904F903F905B
:04034A002F90089553
:10034E00EF92FF920F931F93CF93DF938091AF069F
:10035E00811104C1C091A706D091A8067E018FEF2E
:10036E00E81AF80AF092A806E092A706E114F10442
:10037E00B9F48091AB069091AC062091A90630910C
:10038E00AA063093AC062093AB069093AA068093F0
:10039E00A9068091B1068F5F8093B1060E94B90CB9
:1003AE008091A3069091A406E816F90610F480E059
:1003BE00B9C080E061E0E091AB06F091AC069081AF
:1003CE00911107C02FEF3FEF3093A4062093A306A1
:1003DE00A9C0E091AB06F091AC060580F681E02D48
:1003EE000680F781E02D22813381E216F30628F490
:1003FE003093A4062093A30695C0A285B3852481CD
:10040E00358146815781E9015D834C832681378191
:10041E0044815581E9015B834A83AF014E5F5F4F93
:10042E0011962D913C9112972417350731F42681A0
:10043E00378112963C932E931197138612869C91B8
:10044E0091509C93A489B589109719F1268537850B
:10045E0000891189E9011D830C8320893189068564
:10046E001785E9011B830A8311960D911C91129732
:10047E009F01245F3F4F0217130731F42089318902
:10048E0012963C932E931197158A148A9C91915033
:10049E009C9326899091B406921710F42093B4067B
:1004AE0030E0D901AA0FBB1FAA0FBB1FAA0FBB1F9B
:1004BE002A0F3B1FD901A45CB94F11960D90BC9128
:1004CE00A02DB583A48314962D913C911597378357
:1004DE00268314962D913C911597E9015B834A83EF
:1004EE0015965C934E931497A689B0E09D01220F4A
:1004FE00331F220F331F220F331FA20FB31FA45C13
:10050E00B94FB387A2879C919F5F9C93A091AD0634
:10051E00B091AE06268956969C91921708F04BCF55
:10052E00862F49CFE091AD06F091AE06268930E0D8
:10053E00F901EE0FFF1FEE0FFF1FEE0FFF1F2E0F25
:10054E003F1FF901E45CF94F9081923008F081E091
:10055E009091B206992361F081E00AC08091A506C0
:10056E009091A60601969093A6068093A50680E02C
:0E057E00DF91CF911F910F91FF90EF900895A4
:10058C001F93CF93DF930FB6F8940F928091AF0621
:10059C0081508093AF068091AF068111C6C08091C7
:1005AC00B50681119BC0C4C0DB011596ED91FC9181
:1005BC0016970680F781E02DA489B58986859785E5
:1005CC0020893189EC013D832C8380899189268592
:1005DC003785EC013B832A83CF010C9611962D9124
:1005EC003C9112972817390731F48089918912961A
:1005FC009C938E931197158A148A8C9181508C93AD
:10060C00A285B3858481958126813781EC013D8358
:10061C002C838681978124813581EC013B832A834D
:10062C009F012E5F3F4F11968D919C9112978217CF
:10063C00930731F48681978112969C938E93119730
:10064C00138612868C9181508C9386899091B40676
:10065C00981710F48093B40690E0DC01AA0FBB1F2E
:10066C00AA0FBB1FAA0FBB1F8A0F9B1FDC01A45C28
:10067C00B94F11960D90BC91A02DB583A4831496FF
:10068C008D919C9115979783868314968D919C914F
:10069C001597EC013B832A8315963C932E93149764
:1006AC00A689B0E0CD01880F991F880F991F880F7C
:1006BC00991FA80FB91FA45CB94FB387A2878C915F
:1006CC008F5F8C93A091AD06B091AE06968956962D
:1006DC008C91981740F04093B20605C0E0E0F0E032
:1006EC0062E776E041E0DB018C9181115DCFEF2B6D
:1006FC0011F00E94B90CC091A506D091A6062097C6
:10070C0061F011E00E94A70181111093B2062197AC
:10071C00C9F71092A6061092A5068091B2068823FE
:10072C0031F00E94970881E003C080E001C080E0B6
:0C073C000F900FBEDF91CF911F91089528
:100748002F923F924F926F927F928F92BF92CF9249
:10075800DF92EF92FF920F931F93CF93DF93CDB762
:10076800DEB728970FB6F894DEBF0FBECDBF7C0169
:100778004E835F8368873D832C8310E0BB24B3944A
:100788003C0180E8882E1301482CEAE12E0E311C2A
:10079800411CFBE16F0E711C811C670188E0C80ECB
:1007A800D11C0FB6F8940F92F701928D838D98178C
:1007B80010F00230F1F4202F4E815F816885C70167
:1007C8000E949209F7019189992361F0F1E1EF0EF6
:1007D800F11CB70180E80E946804882331F00E9468
:1007E800970803C081110E9497080F900FBE81E0FF
:1007F80055C08C819D81892B21F40F900FBE80E01C
:100808004DC0111105C0CE0101960E94AE0D1B2DE1
:100818000F900FBE0E94D60D0FB6F8940F92F701F5
:10082800858D8F3F09F4158EF701868D8F3F09F46A
:10083800168E0F900FBEBE016C5F7F4FCE010196E2
:100848000E941D0A811124C00FB6F8940F92F1017D
:10085800949147FC90810F900FBEF301849187FC1F
:10086800808198130FC06C817D81C6010E945E0D46
:10087800C7010E94F0080E94C602811192CF0E940F
:1008880097088FCFC7010E94F0080E94C60289CF3F
:10089800C7010E94F0080E94C60280E028960FB6A1
:1008A800F894DEBF0FBECDBFDF91CF911F910F919E
:1008B800FF90EF90DF90CF90BF908F907F906F90D8
:0808C8004F903F902F9008951E
:1008D000CF93DF93A82FCB010596A11DFC015A2FC2
:1008E0000E94CE0DDB011696ED91FC911797A4891D
:1008F000B589C685D785808991899D838C83C08978
:10090000D189868597859B838A839F01245F3F4F8A
:1009100011968D919C9112978217930731F48089DB
:10092000918912969C938E931197158A148A8C91B3
:1009300081508C938091AF06811160C0A285B385F0
:10094000C481D581868197819D838C83C681D7811F
:10095000848195819B838A839F012E5F3F4F1196EF
:100960008D919C9112978217930731F4868197811C
:1009700012969C938E931197138612868C918150B8
:100980008C9386899091B406981710F48093B406DE
:1009900090E0DC01AA0FBB1FAA0FBB1FAA0FBB1F51
:1009A0008A0F9B1FDC01A45CB94F11960D90BC917E
:1009B000A02DB583A48314968D919C911597978350
:1009C00086831496CD91DC9115973B832A831596E7
:1009D0003C932E931497A689B0E0CD01880F991F00
:1009E000880F991F880F991FA80FB91FA45CB94FD2
:1009F000B387A2878C918F5F8C931CC042E756E02F
:100A0000DA011196CD91DC911297D787C6878C8138
:100A10009D81918B808B8C819D81DC0113963C9311
:100A20002E9312973D832C83558B448BDA018C9146
:100A30008F5F8C93A091AD06B091AE0696895696C5
:100A40008C91891720F481E08093B20601C080E088
:060A5000DF91CF91089533
:100A5600EF92FF920F931F93CF93DF93EC010E94C7
:100A6600D60D80919F069091A006892B11F5EDE891
:100A7600F6E0A0E6B0E0B183A08313821282E8E339
:100A8600F6E0F093A006E0939F061382128211828D
:100A9600108288ED95E013969C938E931297ED93B2
:100AA600FC9390939C0680939B0690939E0680935E
:100AB6009D06CE0101978A3F9F4F08F067C09E01B1
:100AC6002B5F3F4FCB5FDF47C130D04808F461C092
:100AD60000919D0610919E060217130708F45CC04C
:100AE600C0918D06D0918E06EDE8F6E002C0FE01BB
:100AF600EC018A819B818217930720F48881998172
:100B06000097A9F780919F069091A006C817D9076C
:100B160009F445C0E080F18084E0E80EF11C88818C
:100B26009981918380834A815B81421B530B4930B3
:100B3600510550F0CE01820F931FFC01538342836F
:100B46003B832A830E9445098A819B81081B190BD6
:100B560010939E0600939D0620919B0630919C065D
:100B66000217130720F410939C0600939B069068C7
:100B76009B838A83198218828091990690919A069E
:100B8600019690939A06809399060BC0E12CF12C5E
:100B960008C0E12CF12C05C0E12CF12C02C0E12C9F
:100BA600F12C0E94C602C701DF91CF911F910F91D0
:060BB600FF90EF9008958E
:100BBC006F927F928F929F92AF92BF92CF92DF9261
:100BCC00EF92FF920F931F93CF93DF9300D000D03F
:100BDC001F92CDB7DEB78C015B015D834C83E12C9A
:100BEC00992493943C0180E8882E6801E1E1CE0EB3
:100BFC00D11C0FB6F8940F92F801F28CFF20B9F0CB
:100C0C00B501C8010E94D50CFA94F801F28E8085CA
:100C1C00882349F0085F1F4FB80180E80E946804E0
:100C2C0081110E9497080F900FBE81E053C08C81F8
:100C3C009D81892B21F40F900FBE80E04BC0E110F9
:100C4C0005C0CE0101960E94AE0DE92C0F900FBE8F
:100C5C000E94D60D0FB6F8940F92F801858D8F3F38
:100C6C0009F4158EF801868D8F3F09F4168E0F90BE
:100C7C000FBEBE016C5F7F4FCE0101960E941D0A14
:100C8C0081111BC0882DB3010E94700D882379F04F
:100C9C006C817D81C6010E945E0DC8010E94F00826
:100CAC000E94C6028111A5CF0E949708A2CFC8014D
:100CBC000E94F0080E94C6029CCFC8010E94F00856
:100CCC000E94C602882DB3010E94700D882309F47E
:100CDC0090CF80E00F900F900F900F900F90DF91BE
:100CEC00CF911F910F91FF90EF90DF90CF90BF901D
:0C0CFC00AF909F908F907F906F900895B4
:100D0800FF920F931F93CF93DF93EC01F62E009180
:100D1800A7061091A8068091AD069091AE0602969E
:100D28000E94DB0BCF3F8FEFD807B1F5FF20A1F171
:100D3800E0E6F6E0A181B281C091AD06D091AE06A1
:100D4800BD83AC83C091AD06D091AE0614968D914B
:100D58009C9115979F838E831496CD91DC9115975E
:100D68008091AD069091AE0602969B838A8380910E
:100D7800AD069091AE06029615969C938E931497A5
:100D8800A091AD06B091AE061B96FC93EE931A9710
:100D980080818F5F80832FC0C00FD11FE091AD0687
:100DA800F091AE06D383C283C017D10768F460916F
:100DB800AD067091AE068091A9069091AA066E5F65
:100DC8007F4F0E94260B17C06091AD067091AE064A
:100DD8008091AB069091AC066E5F7F4F0E94260B08
:100DE8008091A3069091A406C817D90720F4D09340
:100DF800A406C093A306DF91CF911F910F91FF9096
:020E080008954B
:100E0A0031E1FC013083319722E220833197A3E359
:100E1A00A08331976083319770833197108231971D
:100E2A0060E8608331971082319762E0608331977E
:100E3A0063E06083319764E06083319765E06083A3
:100E4A00319766E06083319767E06083319768E0A5
:100E5A006083319769E06083319760E160833197FD
:100E6A003083319732E13083319733E130833197E0
:100E7A0034E13083319735E13083319736E130837D
:100E8A00319737E13083319738E13083319739E14F
:100E9A003083319730E23083319731E230833197B2
:100EAA002083319723E220833197408331975083FF
:100EBA00319726E22083319727E22083319728E26F
:100ECA002083319729E22083319720E320833197C9
:080EDA0021E3208386970895AF
:100EE2008091AF06882321F081E08093B2060895B5
:100EF2001092B2062091B406822F90E0FC01EE0F10
:100F0200FF1FEE0FFF1FEE0FFF1FE80FF91FE45C3C
:100F1200F94F3081311111C02150822F90E0FC0134
:100F2200EE0FFF1FEE0FFF1FEE0FFF1FE80FF91F5F
:100F3200E45CF94F3081332379F3AC01440F551F40
:100F4200440F551F440F551F480F591FDA01A45C67
:100F5200B94F1196ED91FC9112970280F381E02D29
:100F62001296FC93EE931197415C594FE417F507E3
:100F720029F442815381FD0152834183FC01EE0F2A
:100F8200FF1FEE0FFF1FEE0FFF1F8E0F9F1FFC01B3
:100F9200E45CF94F0180F281E02D86819781909384
:0C0FA200AE068093AD062093B4060895BF
:100FAE00EF92FF920F931F93CF93DF93FC01362F97
:100FBE00892B09F44DC0238D222309F44BC0022F37
:100FCE0010E0448DE42EF12C8FEF9FEFB8010E94BC
:100FDE00370D6E157F0508F43FC0EF010FB6F8947C
:100FEE000F9260817181CB01249F800D911D112480
:100FFE0095838483128E73836283015011090E9D33
:10100E00C0010F9D900D1E9D900D1124860F971FF0
:10101E00978386838FEF858F868F31110DC08085E4
:10102E00882391F02896BE0180E80E9468048823E8
:10103E0059F00E94970808C0CF0108960E94A00D93
:10104E00CE0141960E94A00D0F900FBE81E005C00B
:10105E0080E003C080E001C080E0DF91CF911F915E
:08106E000F91FF90EF9008952F
:101076000F920FB6F8940F921F9211242F923F925F
:101086004F925F926F927F928F929F92AF92BF9292
:10109600CF92DF92EF92FF920F931F932F933F937E
:1010A6004F935F936F937F938F939F93AF93BF936A
:1010B600CF93DF93EF93FF93A091AD06B091AE0669
:1010C6000DB60D920EB60D920E94A70181110E94D7
:1010D6007107A091AD06B091AE06CD91CDBFDD9161
:1010E600DEBFFF91EF91DF91CF91BF91AF919F91BD
:1010F6008F917F916F915F914F913F912F911F91AA
:101106000F91FF90EF90DF90CF90BF90AF909F90A0
:101116008F907F906F905F904F903F902F901F9091
:081126000F900FBE0F90089519
:10112E000F920FB6F8940F921F9211242F923F92A6
:10113E004F925F926F927F928F929F92AF92BF92D9
:10114E00CF92DF92EF92FF920F931F932F933F93C5
:10115E004F935F936F937F938F939F93AF93BF93B1
:10116E00CF93DF93EF93FF93A091AD06B091AE06B0
:10117E000DB60D920EB60D920E947107A091AD069E
:10118E00B091AE06CD91CDBFDD91DEBFFF91EF9157
:10119E00DF91CF91BF91AF919F918F917F916F9181
:1011AE005F914F913F912F911F910F91FF90EF9073
:1011BE00DF90CF90BF90AF909F908F907F906F9069
:1011CE005F904F903F902F901F900F900FBE0F90FB
:0211DE00089572
:1011E000CF92DF92EF920F931F93CF938C010FB6A4
:1011F000F8940F92FC01C68D1C16C4F481898111EC
:1012000006C014C0F8018189811107C00FC06801B0
:10121000F1E1CF0ED11C80E8E82E8E2DB6010E94A0
:10122000680481110E94E40DC15061F78FEFF8014D
:10123000868F0F900FBE0FB6F8940F92C58D1C16B7
:10124000C4F48085811106C014C0F8018085811125
:1012500007C00FC06801F8E0CF0ED11C80E8E82E6F
:101260008E2DB6010E94680481110E94E40DC150C8
:1012700061F78FEFF801858F0F900FBECF911F910F
:0A1280000F91EF90DF90CF900895DA
:10128A00CF93DF93DC01EDE8F6E001C0F90120819C
:10129A0031812A173B07D0F382819381AF01480F2E
:1012AA00591FA417B50749F412964D915C911397EB
:1012BA00840F951F93838283DF0112968D919C91EF
:1012CA001397ED01C80FD91F2C173D07D9F42091A8
:1012DA009F063091A006C217D30781F02A813B816D
:1012EA00820F931F13969C938E931297C081D1817C
:1012FA008881998111969C938E9307C01196DC93ED
:10130A00CE9303C011963C932E93AE17BF0711F0EC
:0A131A00B183A083DF91CF91089505
:101324000F931F93CF93DF93EC01022F1A8D2C8D13
:101334002223B9F1011116C030E08A819B810E94F9
:101344000A0D2C8D8A819B81820F911D9B838A8338
:101354002C813D818217930720F1888199819B8399
:101364008A831FC030E08E819F810E940A0D8C8D7C
:1013740090E09195819591092E813F81280F391F25
:101384003F832E83488159812417350730F42C81FB
:101394003D81820F931F9F838E83023011F41111BC
:1013A40011501F5F1A8F80E0DF91CF911F910F9131
:0213B40008959A
:1013B6000F931F93CF93DF93282F362F882361F146
:1013C600682F70E08FEF9FEF0E94370D832F90E01C
:1013D6006817790720F1239FC0011124813E4FEF42
:1013E600940700F5D32FC22F4F960E942B058C0130
:1013F6000097D1F0D11104C0FC019183808304C011
:101406004F96F80191838083F801C38FD48F61E0F2
:10141600C8010E94D70708C000E010E005C000E040
:1014260010E002C000E010E0C801DF91CF911F91EB
:041436000F91089575
:10143A00CF93DF930FB6F8940F922091A7063091BD
:10144A00A806DB014D915C914F3FBFEF5B0719F195
:10145A00EC01E981FA81A091B106B881BA1741F08D
:10146A002E173F0728F0FB011182108281E014C079
:10147A002E1B3F0B2417350748F4FB01421B530B65
:10148A00518340830E94AE0D80E006C0DB011D92AD
:10149A001C9281E001C080E00F900FBEDF91CF91D6
:0214AA000895A3
:1014AC0009E616E00F2EFCE3EF2EF6E0FF2EF02DF2
:1014BC008091B606882329F10FB6F8940F92D801C3
:1014CC001596ED91FC911697C681D781CE010296A7
:1014DC000E94DB0B8091B50681508093B5068091FC
:1014EC00B60681508093B6060F900FBE8F89988DEB
:1014FC000E94F50ACE010E94F50A8091B606811170
:10150C00DBCFF7018081823098F20E949708D0CF10
:10151C001BBC89EF8ABD8BE08EBD89B7806189BF0A
:10152C00A091AD06B091AE06CD91CDBFDD91DEBFE1
:10153C00FF91EF91DF91CF91BF91AF919F918F91DF
:10154C007F916F915F914F913F912F911F910F91CF
:10155C00FF90EF90DF90CF90BF90AF909F908F90C7
:10156C007F906F905F904F903F902F901F900F90B7
:0A157C000FBE0F90089581E008955E
:101586000E94860B40E062E084E00E94DB099093B3
:101596009206809391060F2EF5E9CF2EF6E0DF2E08
:1015A600F02D0F2EF3E0EF2EF02D00E010E024E6F4
:1015B60030E04EEA50E060E083EB9BE00E945D0085
:1015C6000F2EF3E9CF2EF6E0DF2EF02D24E630E0E5
:1015D60041EB50E060E082E09CE00E945D000E94EA
:0415E600570BFFCFD1
:1015EA00CF93DF93009751F1FC0134972281338125
:1015FA00332324F540815181452B01F5EF013F77D3
:10160A00338322830E94D60D20919D0630919E0637
:10161A008A819B81820F931F90939E0680939D06D9
:10162A00CE010E94450980919706909198060196ED
:10163A0090939806809397060E94C602DF91CF91F5
:02164A00089501
:10164C00CF93DF93EB01488159814F3F2FEF520726
:10165C0021F4FC01A781B0850DC0DC01139601C0FB
:10166C00DF011296ED91FC91139720813181421785
:10167C005307B0F71296ED91FC911397FB83EA8315
:10168C00D583C483BD83AC831396DC93CE9312971E
:10169C0099878887FC0120812F5F2083DF91CF9170
:0216AC0008959F
:1016AE00CF92DF92EF920F931F930F2EF1EACF2E70
:1016BE00F6E0DF2EF02DE12C00E010E025E530E025
:1016CE0044EB50E060E086E59AE00E945D008130D8
:1016DE0081F4F8948FEF9FEF9093A4068093A30666
:1016EE0081E08093B3061092A8061092A7060E947E
:0E16FE008E0A1F910F91EF90DF90CF9008950C
:10170C0060EF8BE390E00E94DC0D41E063E088E346
:10171C0090E00E94250C41E061E088E390E00E949B
:10172C00250C41E062E088E390E00E94250C8FE3F9
:10173C009CE90197F1F700C0000082E00E947F0C49
:10174C0086E00E947F0C8CE00E947F0C8FE39CE96A
:0A175C000197F1F700C000000895A6
:10176600CF93DF9300D0CDB7DEB71A821982CE01B0
:1017760001966C0120E8E22E89819A8101969A836E
:10178600898300E025E030E06E2DA6018091910668
:10179600909192060E94A403811105C089819A81C5
:1017A60001979A83898384EF91E00E94230DE4CF09
:1017B600CF93DF93FC01A085B185C281D38184815B
:1017C60095819D838C83C481D581828193819B83FE
:1017D6008A8311968D919C911297E817F90731F437
:1017E6008481958112969C938E931197118610860B
:0E17F6008C9181508C938C91DF91CF9108954E
:10180400CF93DF9300D0CDB7DEB71A82198284E676
:1018140090E00E94230D45E050E0BE016F5F7F4FD2
:1018240080919106909192060E94DE05813031F4F8
:101834000E94C40D89819A810E949C0C84EF91E0DE
:061844000E94230DE8CF15
:10184A00442319F0413079F00895E82FF92F2291B5
:10185A0081E090E002C0880F991F6A95E2F78095AF
:10186A00822380830895E82FF92F229181E090E066
:10187A0002C0880F991F6A95E2F7822B8083089528
:10188A00442371F04130C1F4FC01408121E030E091
:10189A0002C0220F331F6A95E2F7242B2083089592
:1018AA00FC01408121E030E002C0220F331F6A951B
:0A18BA00E2F720952423208308950F
:1018C400CF93C82F41E061E088E390E00E94450C8B
:1018D4008BB38F709C2F907F892B8BBB0E944B0DF9
:1018E4008BB3282F2F7030E1C39FC0011124822BAA
:0A18F4008BBB0E944B0DCF910895AD
:1018FE00CF93C82F40E061E088E390E00E94450C52
:10190E008BB38F709C2F907F892B8BBB0E944B0DBE
:10191E008BB3282F2F7030E1C39FC0011124822B6F
:0A192E008BBB0E944B0DCF91089572
:10193800CF93DF93CDB7DEB72B970FB6F894DEBF02
:101948000FBECDBF4AE0BE016F5F7F4F0E94B90D49
:10195800CE0101960E94910D2B960FB6F894DEBF2A
:0A1968000FBECDBFDF91CF910895AF
:10197200E091AB06F091AC068081811107C08FEF38
:101982009FEF9093A4068093A3060895E091AB067F
:10199200F091AC060580F681E02D808191819093D3
:0819A200A4068093A30608953A
:1019AA00FC01248D2223B1F030E046815781420F99
:1019BA00531F57834683848195814817590720F01E
:1019CA008081918197838683CB014681578160E824
:0619DA000E940A0D0895B1
:1019E000BB27FB015527AA27880F991FAA1FA417F9
:1019F00010F0A41B83955051B9F7A05DAA3308F0ED
:101A0000A95DA193009779F7B111B1931192CB0120
:041A10000C94810DA4
:101A1400CF92DF92EF92DC016A01E62E280F391F84
:101A2400A217B30751F0F6014491E7FC40814D93AE
:101A34004FEFC41AD40AE40AF3CFEF90DF90CF90AB
:021A4400089503
:101A4600CF93DF93EC01892B51F00E94D60D60E015
:101A5600CE010E9484060E94C602811102C00E9425
:081A66009708DF91CF9108956C
:101A6E00AA1BBB1B51E107C0AA1FBB1FA617B707B6
:101A7E0010F0A61BB70B881F991F5A95A9F78095D2
:081A8E009095BC01CD01089503
:101A960041E063E088E390E00E94450C87EC90E02B
:101AA6000197F1F700C0000040E063E088E390E0B2
:061AB6000E94450C08959A
:101ABC00CF93DF93EB016091AD067091AE06645F3E
:101ACC007F4F0E94260B61E0CE010E948406DF91BD
:041ADC00CF91089509
:101AE0000FB6F8940F92A82FCB014A96A11DFC01C6
:101AF0009491A7FD90810F900FBE81E0911180E03D
:021B0000089546
:101B0200DC01FC01672F71917723E1F7329704C062
:101B12007C916D9370836291AE17BF07C8F30895ED
:101B2200CF93DF93EC018881882331F021960E94C4
:0E1B3200620C89918111FBCFDF91CF91089554
:101B4000FC010396928381832FEF3FEF348323833D
:0C1B500096838583908787831082089518
:101B5C002091B106FC0120832091A7063091A806A4
:061B6C003283218308957D
:101B7200BB274A3031F4992322F4BDE29095819536
:061B82009F4F0C94F10CD2
:101B880081E00E947F0C8FE39CE90197F1F700C088
:041B980000000895AC
:101B9C0057FD03C0659175910895619171910895F8
:0C1BAC008091AF068F5F8093AF06089514
:081BB8000197FC016083089510
:081BC000FC0111861086089556
:081BC80081E08093B20608954C
:061BD0000E943B0818957D
:041BD6000C9400006B
:00000001FF
