:100000000C942A000C9408010C9408010C9408012B
:100010000C94FE000C9408010C9408010C94080147
:100020000C9408010C9408010C9408010C9408012C
:100030000C9408010C9408010C9408010C9408011C
:100040000C9408010C9408010C9408010C9408010C
:100050000C94080111241FBECFE5D8E0DEBFCDBF50
:10006000E4E5F0E040E017C0B591A5913591259108
:10007000059107FD0CC095918591EF01F92FE82FAF
:1000800005900D92A217B307D9F7FE0104C01D9287
:10009000A217B307E1F7E435F40731F70E945400E3
:0800A0000C945200F894FFCF0C
:1000A8000E94DE0065E081E00E94840088EC0E94E6
:1000B8000A0182E00E94C50081E00E94F100789464
:1000C800C4E6C65F8C2F0E940A012FEF85EA9EE0E6
:1000D800215080409040E1F700C00000CC3289F701
:1000E800CA508C2F0E940A012FEF85EA9EE021500A
:1000F80080409040E1F700C00000C43689F7E0CFA7
:10010800813051F028F0823071F0833099F015C0B9
:1001180085B5877B85BD11C085B5877B85BD85B5D0
:10012800806485BD0AC085B5877B85BD85B5886037
:1001380085BD03C085B5886485BD85B5682B65BD5B
:02014800089518
:10014A00442319F0413079F00895E82FF92F2291CC
:10015A0081E090E002C0880F991F6A95E2F78095C6
:10016A00822380830895E82FF92F229181E090E07D
:10017A0002C0880F991F6A95E2F7822B808308953F
:10018A00813019F0823059F0089541E067E082E346
:10019A0090E00E94A50085B5806185BD089541E083
:1001AA0067E082E390E00E94A50085B5806385BD83
:0201BA000895A6
:1001BC0040E060E088E390E00E94A50040E066E04B
:1001CC0082E390E00E94A50040E062E082E390E0D0
:0601DC000E94A500089539
:1001E200882319F0813029F0089589B7806489BF86
:0A01F200089589B7806889BF089559
:1001FC001F920F920FB60F9211240F900FBE0F90FB
:04020C001F90189592
:040210000C9400004A
:0402140083BD089509
:00000001FF
