:100000000C942A000C94D2010C94D2010C94D201CD
:100010000C94D2010C94D2010C94D2010C94D20114
:100020000C94D2010C94D2010C94D2010C94D20104
:100030000C94D2010C94D2010C94D2010C94D201F4
:100040000C94D2010C94D2010C94D2010C94D201E4
:100050000C94D20111241FBECFE5D8E0DEBFCDBF86
:0C0060000E9436000C943400F894FFCF8E
:10006C000E94B2002FEF89E698E121508040904029
:10007C00E1F700C000000E9456010E94C7012FEF5B
:10008C0089E698E1215080409040E1F700C00000E3
:10009C000E94B6012FEF89E698E1215080409040F4
:1000AC00E1F700C000002FEF81EE94E0215080407A
:1000BC009040E1F700C0000061E482E30E9470010F
:1000CC002FEF89E698E1215080409040E1F700C085
:1000DC00000082E30E948A010E941C012FEF89E636
:1000EC0098E1215080409040E1F700C00000F1CF32
:1000FC009DB120E2629FB0011124692B6DB9882358
:10010C00C9F08130F1F46C9A8DB1482B4DB941E0B6
:10011C0065E088E390E00E94DF0041E067E088E35F
:10012C0090E00E94DF0041E064E088E390E00E94F0
:10013C00DF0007C06C9841E066E088E390E00E9425
:10014C00DF008FEF90E722E0815090402040E1F7F4
:08015C0000C000006E9A089536
:1001640060EF8BE390E00E94CE0141E063E088E31E
:1001740090E00E94DF0041E061E088E390E00E94AB
:10018400DF0041E062E088E390E00E94DF008FE35B
:100194009CE90197F1F700C0000082E00E94390158
:1001A40086E00E9439018CE00E9439018FE39CE9CA
:0A01B4000197F1F700C00000089564
:1001BE00442319F0413079F00895E82FF92F229158
:1001CE0081E090E002C0880F991F6A95E2F7809552
:1001DE00822380830895E82FF92F229181E090E009
:1001EE0002C0880F991F6A95E2F7822B80830895CB
:1001FE00442371F04130C1F4FC01408121E030E034
:10020E0002C0220F331F6A95E2F7242B2083089534
:10021E00FC01408121E030E002C0220F331F6A95BD
:0A022E00E2F72095242320830895B1
:10023800CF93C82F41E061E088E390E00E94FF007F
:100248008BB38F709C2F907F892B8BBB0E94A3014F
:100258008BB3282F2F7030E1C39FC0011124822B4C
:0A0268008BBB0E94A301CF91089503
:10027200CF93C82F40E061E088E390E00E94FF0046
:100282008BB38F709C2F907F892B8BBB0E94A30115
:100292008BB3282F2F7030E1C39FC0011124822B12
:0A02A2008BBB0E94A301CF910895C9
:1002AC0043E060E081E00E947E002FEF80E792E067
:1002BC00215080409040E1F700C000000E94C7012F
:1002CC002FEF89E698E1215080409040E1F700C083
:0402DC000000089581
:1002E000CF93DF93D82FC62F0E94C00182E00E94D7
:1002F000D401779BFECF8D2F0E94D401779BFECF38
:100300008C2F0E94D401779BFECF0E94C701DF9102
:04031000CF910895EC
:10031400CF93C82F0E94C00183E00E94D401779B31
:10032400FECF8C2F0E94D401779BFECF80E00E94E9
:10033400D401779BFECFCFB10E94C7018C2FCF9100
:0203440008951A
:1003460041E063E088E390E00E94FF0087EC90E0E4
:100356000197F1F700C0000040E063E088E390E019
:060366000E94FF00089553
:10036C000E94C00186E00E94D401779BFECF0E94C0
:04037C00C701089518
:0E03800040E064E088E390E00E94FF000895F2
:0E038E0041E064E088E390E00E94FF000895E3
:08039C000197FC016083089544
:0403A4000C940000B5
:0403A8008FB908956C
:00000001FF
