:100000000C942A000C945F000C945F000C945F0029
:100010000C945F000C945F000C945F000C945F00E4
:100020000C945F000C945F000C945F000C945F00D4
:100030000C945F000C945F000C945F000C945F00C4
:100040000C945F000C945F000C945F000C945F00B4
:100050000C945F0011241FBECFE5D8E0DEBFCDBFFA
:0C0060000E9436000C943400F894FFCF8E
:10006C0060E08BE390E00E945B006FEF85E390E033
:10007C000E945B002FEF89E698E121508040904070
:10008C00E1F700C0000062E085E390E00E944F00C1
:02009C00F1CFA2
:10009E00FC01408121E030E002C0220F331F6A953F
:0800AE00E2F7242720830895E6
:0800B6000197FC01608308952D
:0400BE000C9400009E
:00000001FF
