:100000000C942D000C94AC030C94AC030C94AC0336
:100010000C94AC030C94AC030C94AC030C94A903A7
:100020000C94AC030C94AC030C94AC030C94AC0394
:100030000C94AC030C94AC030C94AC030C94AC0384
:100040000C94AC030C94AC030C94AC030C94AC0374
:100050000C94AC0300600094800011241FBECFE517
:10006000D8E0DEBFCDBFE4E5F0E040E017C0B591D9
:10007000A59135912591059107FD0CC0959185912C
:10008000EF01F92FE82F05900D92A217B307D9F7CA
:10009000FE0104C01D92A217B307E1F7E935F4078A
:0E00A00031F70E9438020C945500F894FFCFFF
:1000AE00EF92FF920F931F93CF93DF938091900067
:1000BE00811104C1C0918800D09189007E018FEF1B
:1000CE00E81AF80AF0928900E0928800E114F1042F
:1000DE00B9F480918C0090918D0020918A0030911E
:1000EE008B0030938D0020938C0090938B00809327
:1000FE008A00809191008F5F809391000E940E0381
:10010E008091840090918500E816F90610F480E045
:10011E00B9C080E061E0E0918C00F0918D0090819B
:10012E00911107C02FEF3FEF30938500209384008D
:10013E00A9C0E0918C00F0918D000580F681E02D34
:10014E000680F781E02D22813381E216F30628F432
:10015E00309385002093840095C0A285B3852481B9
:10016E00358146815781E9015D834C832681378134
:10017E0044815581E9015B834A83AF014E5F5F4F36
:10018E0011962D913C9112972417350731F4268143
:10019E00378112963C932E931197138612869C915B
:1001AE0091509C93A489B589109719F126853785AE
:1001BE0000891189E9011D830C8320893189068507
:1001CE001785E9011B830A8311960D911C911297D5
:1001DE009F01245F3F4F0217130731F420893189A5
:1001EE0012963C932E931197158A148A9C919150D6
:1001FE009C93268990919300921710F4209393006C
:10020E0030E0D901AA0FBB1FAA0FBB1FAA0FBB1F3D
:10021E002A0F3B1FD901A05ABF4F11960D90BC91CA
:10022E00A02DB583A48314962D913C9115973783F9
:10023E00268314962D913C911597E9015B834A8391
:10024E0015965C934E931497A689B0E09D01220FEC
:10025E00331F220F331F220F331FA20FB31FA05ABB
:10026E00BF4FB387A2879C919F5F9C93A0918E00F6
:10027E00B0918F00268956969C91921708F04BCF1D
:10028E00862F49CFE0918E00F0918F00268930E0C5
:10029E00F901EE0FFF1FEE0FFF1FEE0FFF1F2E0FC8
:1002AE003F1FF901E05AFF4F9081923008F081E034
:1002BE0090919200992361F081E00AC080918600AE
:1002CE00909187000196909387008093860080E03E
:0E02DE00DF91CF911F910F91FF90EF90089547
:1002EC0080919000882321F081E080939200089502
:1002FC001092920020919300822F90E0FC01EE0F5F
:10030C00FF1FEE0FFF1FEE0FFF1FE80FF91FE05A44
:10031C00FF4F3081311111C02150822F90E0FC0130
:10032C00EE0FFF1FEE0FFF1FEE0FFF1FE80FF91F61
:10033C00E05AFF4F3081332379F3AC01440F551F42
:10034C00440F551F440F551F480F591FDA01A05A6F
:10035C00BF4F1196ED91FC9112970280F381E02D25
:10036C001296FC93EE9311974D595F4FE417F507D6
:10037C0029F442815381FD0152834183FC01EE0F2C
:10038C00FF1FEE0FFF1FEE0FFF1F8E0F9F1FFC01B5
:10039C00E05AFF4F0180F281E02D86819781909386
:0C03AC008F0080938E0020939300089532
:1003B8000F920FB6F8940F921F9211242F923F922A
:1003C8004F925F926F927F928F929F92AF92BF925D
:1003D800CF92DF92EF92FF920F931F932F933F9349
:1003E8004F935F936F937F938F939F93AF93BF9335
:1003F800CF93DF93EF93FF93A0918E00B0918F007E
:100408000DB60D920EB60D920E94570081110E94F2
:100418007601A0918E00B0918F00CD91CDBFDD9176
:10042800DEBFFF91EF91DF91CF91BF91AF919F9187
:100438008F917F916F915F914F913F912F911F9174
:100448000F91FF90EF90DF90CF90BF90AF909F906B
:100458008F907F906F905F904F903F902F901F905C
:080468000F900FBE0F900895E4
:100470000E9460030E9486030E9473032FEF89E6A7
:1004800098E1215080409040E1F700C0000089E0F1
:1004900090E00E94A203C82FD0E080E00E94870273
:1004A000882379F02FEF89E698E121508040904031
:1004B000E1F700C0000021966C2F89E090E00E94D7
:1004C0009903C130D10579F0C230D105B1F0209740
:1004D00021F782E00E942A0387E00E94450383E01F
:1004E0000E944503DACF87E00E942A0382E00E943F
:1004F000450383E00E944503D0CF83E00E942A0396
:0E05000087E00E94450382E00E944503C6CFBB
:10050E00CF93DF931F92CDB7DEB719828230B1F051
:10051E00863059F081111AC0AE014F5F5F4F60E017
:10052E0088E390E00E94D20211C0AE014F5F5F4F90
:10053E0066E082E390E00E94D20208C0AE014F5FF7
:10054E005F4F62E082E390E00E94D20289810F90B9
:06055E00DF91CF9108952A
:10056400442319F0413079F00895E82FF92F2291AE
:1005740081E090E002C0880F991F6A95E2F78095A8
:10058400822380830895E82FF92F229181E090E05F
:1005940002C0880F991F6A95E2F7822B8083089521
:1005A400FC013297208130E0062E02C03595279554
:1005B4000A94E2F720FF04C021E0FA01208302C07C
:1005C400FA011082FC013297808190E002C0959577
:0E05D40087956A95E2F78170FA018083089599
:1005E200442371F04130C1F4FC01408121E030E04C
:1005F20002C0220F331F6A95E2F7242B208308954D
:10060200FC01408121E030E002C0220F331F6A95D5
:0A061200E2F72095242320830895C9
:10061C00E0918C00F0918D008081811107C08FEFEB
:10062C009FEF90938500809384000895E0918C0057
:10063C00F0918D000580F681E02D80819181909361
:08064C008500809384000895ED
:10065400833091F0873049F08230A1F441E062E0C8
:1006640085E390E00E94F102089541E067E085E3AC
:1006740090E00E94F102089541E063E082E390E09B
:060684000E94F10208953E
:10068A00833091F0873049F08230A1F440E062E093
:10069A0085E390E00E94F102089540E067E085E377
:1006AA0090E00E94F102089540E063E082E390E066
:0606BA000E94F102089508
:1006C00041E062E085E390E00E94B20241E067E031
:1006D00085E390E00E94B20241E063E082E390E0B3
:0606E0000E94B202089521
:1006E60040E062E085E390E00E94F10240E067E0CE
:1006F60085E390E00E94F10240E063E082E390E04F
:060706000E94F1020895BB
:10070C0040E060E088E390E00E94B20240E066E0E6
:10071C0082E390E00E94B20240E062E082E390E06B
:06072C000E94B2020895D4
:10073200E199FECF8EBB9FBB6DBB84E08CBBE19A7F
:02074200089518
:0E074400E199FECF8EBB9FBBE09A8DB3089566
:060752000E94DC01189575
:040758000C940000FD
:00000001FF
