:100000000C942A000C94C4010C94C4010C94C401F7
:100010000C94C4010C94C4010C94C4010C94C4014C
:100020000C94C4010C94C4010C94C4010C94C4013C
:100030000C94C4010C9454000C94C4010C94C4019D
:100040000C94C4010C94C4010C94C4010C94C4011C
:100050000C94C40111241FBECFE5D8E0DEBFCDBF94
:10006000E4E5F0E040E017C0B591A5913591259108
:10007000059107FD0CC095918591EF01F92FE82FAF
:1000800005900D92A217B307D9F7FE0104C01D9287
:10009000A217B307E1F7E435F40731F70E94A20194
:0800A0000C945200F894FFCF0C
:1000A8001F920F920FB60F9211242F933F934F93E5
:1000B8005F936F937F938F939F93AF93BF93CF93E8
:1000C800EF93FF93CCB18C2F0E940C01C334A9F09D
:1000D80028F4C13451F0C23461F01EC0C634A9F00E
:1000E800C734B9F0C534C1F40CC082E00E9446019F
:1000F80013C087E00E9446010FC083E00E944601BA
:100108000BC082E00E94610107C087E00E94610184
:1001180003C083E00E946101FF91EF91CF91BF91ED
:10012800AF919F918F917F916F915F914F913F9187
:0C0138002F910F900FBE0F901F90189594
:1001440060EF8BE390E00E94C00141E063E088E34C
:1001540090E00E94CF0041E061E088E390E00E94DB
:10016400CF0041E062E088E390E00E94CF008FE39B
:100174009CE90197F1F700C0000082E00E94290188
:1001840086E00E9429018CE00E9429018FE39CE90A
:0A0194000197F1F700C00000089584
:10019E00442319F0413079F00895E82FF92F229178
:1001AE0081E090E002C0880F991F6A95E2F7809572
:1001BE00822380830895E82FF92F229181E090E029
:1001CE0002C0880F991F6A95E2F7822B80830895EB
:1001DE00442371F04130C1F4FC01408121E030E054
:1001EE0002C0220F331F6A95E2F7242B2083089555
:1001FE00FC01408121E030E002C0220F331F6A95DE
:0A020E00E2F72095242320830895D1
:10021800CF93C82F41E061E088E390E00E94EF00AF
:100228008BB38F709C2F907F892B8BBB0E948F0183
:100238008BB3282F2F7030E1C39FC0011124822B6C
:0A0248008BBB0E948F01CF91089537
:10025200CF93C82F40E061E088E390E00E94EF0076
:100262008BB38F709C2F907F892B8BBB0E948F0149
:100272008BB3282F2F7030E1C39FC0011124822B32
:0A0282008BBB0E948F01CF910895FD
:10028C00833091F0873049F08230A1F441E062E094
:10029C0085E390E00E94EF00089541E067E085E37C
:1002AC0090E00E94EF00089541E063E082E390E06B
:0602BC000E94EF0008950E
:1002C200833091F0873049F08230A1F440E062E05F
:1002D20085E390E00E94EF00089540E067E085E347
:1002E20090E00E94EF00089540E063E082E390E036
:0602F2000E94EF000895D8
:1002F80041E062E085E390E00E94CF0041E067E0E2
:1003080085E390E00E94CF0041E063E082E390E063
:060318000E94CF000895D1
:10031E0041E063E088E390E00E94EF0087EC90E01C
:10032E000197F1F700C0000040E063E088E390E041
:06033E000E94EF0008958B
:100344000E94A20080E895E20E94BA0187E00E9420
:0A035400AF010E947C017894FFCFF6
:10035E009AB121E030E002C0220F331F8A95E2F7F6
:06036E00292B2AB90895B5
:0C0374008AB188618AB987E689B90895CA
:080380000197FC016083089560
:040388000C940000D1
:00000001FF
