:100000000C942A000C94FF000C94FF000C94FF0049
:100010000C94FF000C94FF000C94FF000C94FF0064
:100020000C94FF000C94FF000C94FF000C94FF0054
:100030000C94FF000C94FF000C94FF000C94FF0044
:100040000C94FF000C94FF000C94FF000C94FF0034
:100050000C94FF0011241FBECFE5D8E0DEBFCDBF5A
:0C0060000E9471000C943400F894FFCF53
:10006C009DB120E2629FB0011124692B6DB98823E8
:10007C0001F1813029F56C9A2DB181E090E002C03C
:10008C00880F991F4A95E2F7822B8DB941E065E004
:10009C0088E390E00E94960041E067E088E390E0FE
:1000AC000E94960041E064E088E390E00E94960094
:1000BC0007C06C9841E066E088E390E00E949600EF
:1000CC008FEF90E722E0815090402040E1F700C094
:0600DC0000006E9A089579
:1000E2008FEF8ABB2FEF89EF90E021508040904044
:1000F200E1F700C000000E94F5000E94DF002FEF30
:1001020089EF90E0215080409040E1F700C000006C
:100112000E94D3008BBB2FEF89E698E121508040EB
:0A0122009040E1F700C00000E8CFB4
:10012C00442319F0413079F00895E82FF92F2291EA
:10013C0081E090E002C0880F991F6A95E2F78095E4
:10014C00822380830895E82FF92F229181E090E09B
:10015C0002C0880F991F6A95E2F7822B808308955D
:10016C00442371F04130C1F4FC01408121E030E0C6
:10017C0002C0220F331F6A95E2F7242B20830895C7
:10018C00FC01408121E030E002C0220F331F6A9550
:0A019C00E2F7209524232083089544
:1001A6000E94E70081E00E94FB0080E00E94FB00C5
:0801B6000E94EE008FB10895D4
:1001BE000E94E70086E00E94FB000E94EE00089578
:0E01CE0040E064E088E390E00E94B6000895EF
:0E01DC0041E064E088E390E00E94B6000895E0
:0C01EA0043E060E081E00E9436000895D0
:0801F6008FB9779BFECF08953D
:0401FE000C9400005D
:00000001FF
