:100000000C942A000C9440010C9440010C94400183
:100010000C9440010C9440010C9440010C9440015C
:100020000C9440010C9440010C9440010C9440014C
:100030000C9440010C9440010C9440010C9440013C
:100040000C9440010C9440010C9440010C9440012C
:100050000C94400111241FBECFE5D8E0DEBFCDBF18
:0C0060000E94F4000C943400F894FFCFD0
:10006C0041E064E08BE390E00E94830041E065E0B6
:10007C008BE390E00E94830041E066E08BE390E02C
:10008C000E94830041E067E08BE390E00E948300D4
:10009C0041E063E088E390E00E94830041E061E08E
:1000AC0088E390E00E94830041E062E088E390E006
:0600BC000E94830008957C
:1000C200CF93CDEC8C9FC12D1124C695C695C695B4
:1000D2002C2F220F922F990F990F920F891B0E949A
:1000E200C0008FE39FE10197F1F700C000008C2F61
:1000F2000E94DA008FE39FE10197F1F700C0000050
:04010200CF910895FC
:10010600442319F0413079F00895E82FF92F229110
:1001160081E090E002C0880F991F6A95E2F780950A
:10012600822380830895E82FF92F229181E090E0C1
:1001360002C0880F991F6A95E2F7822B8083089583
:10014600442371F04130C1F4FC01408121E030E0EC
:1001560002C0220F331F6A95E2F7242B20830895ED
:10016600FC01408121E030E002C0220F331F6A9576
:0A017600E2F720952423208308956A
:10018000CF93C82F81E00E941C018BB38F708BBB73
:100190002BB330E1C39FC0011124822B8BBB8FE1B5
:1001A0009EE40197F1F700C0000080E00E941C016E
:0401B000CF9108954E
:1001B400CF93C82F81E00E942E018BB38F708BBB2D
:1001C4002BB330E1C39FC0011124822B8BBB8FE181
:1001D4009EE40197F1F700C0000080E00E942E0128
:0401E400CF9108951A
:1001E8000E9436000E940901C1E0D0E003E610E059
:1001F80004C001501109C0E0D0E0802F0E946100C6
:0A0208002196C436D105C9F7F4CFE2
:1002120040E060E088E390E00E94830040E066E016
:1002220082E390E00E94830040E062E082E390E09B
:060232000E948300089504
:10023800882349F0813069F441E061E088E390E087
:100248000E94A300089540E061E088E390E00E94E6
:04025800A300089562
:10025C00882349F0813069F441E062E088E390E062
:10026C000E94A300089540E062E088E390E00E94C1
:04027C00A30008953E
:040280000C940000DA
:00000001FF
