:100000000C942A000C944E010C944E010C944E0159
:100010000C944E010C944E010C944E010C944E0124
:100020000C944E010C944E010C944E010C944E0114
:100030000C944E010C944E010C944E010C944E0104
:100040000C944E010C944E010C944E010C944E01F4
:100050000C944E0111241FBECFE5D8E0DEBFCDBF0A
:0C0060000E9415010C943400F894FFCFAE
:10006C009DB120E2629FB0011124692B6DB98823E8
:10007C0001F1813029F56C9A2DB181E090E002C03C
:10008C00880F991F4A95E2F7822B8DB941E065E004
:10009C0088E390E00E949E0041E067E088E390E0F6
:1000AC000E949E0041E064E088E390E00E949E0084
:1000BC0007C06C9841E066E088E390E00E949E00E7
:1000CC008FEF90E722E0815090402040E1F700C094
:0600DC0000006E9A089579
:1000E20060EF8BE390E00E94460141E063E088E329
:1000F20090E00E949E0041E061E088E390E00E946F
:100102009E0041E062E088E390E00E949E008FE35F
:100112009CE90197F1F700C0000082E00E94F8001C
:1001220086E00E94F8008CE00E94F8008FE39CE9D0
:0A0132000197F1F700C000000895E6
:10013C00442319F0413079F00895E82FF92F2291DA
:10014C0081E090E002C0880F991F6A95E2F78095D4
:10015C00822380830895E82FF92F229181E090E08B
:10016C0002C0880F991F6A95E2F7822B808308954D
:10017C00442371F04130C1F4FC01408121E030E0B6
:10018C0002C0220F331F6A95E2F7242B20830895B7
:10019C00FC01408121E030E002C0220F331F6A9540
:0A01AC00E2F7209524232083089534
:1001B600CF93C82F41E061E088E390E00E94BE0043
:1001C6008BB38F709C2F907F892B8BBB0E9429014C
:1001D6008BB3282F2F7030E1C39FC0011124822BCF
:0A01E6008BBB0E942901CF91089500
:1001F000CF93C82F40E061E088E390E00E94BE000A
:100200008BB38F709C2F907F892B8BBB0E94290111
:100210008BB3282F2F7030E1C39FC0011124822B94
:0A0220008BBB0E942901CF910895C5
:10022A000E94710040E060E080E00E943600C2E473
:10023A008C2F0E9450010E944A01C82F0E943C0143
:08024A008C2F0E94DB00F4CFB1
:1002520041E063E088E390E00E94BE0087EC90E01A
:100262000197F1F700C0000040E063E088E390E00E
:060272000E94BE00089589
:1002780081E00E94F8008FE39CE90197F1F700C044
:0402880000000895D5
:08028C000197FC016083089555
:08029400779BFECF8FB10895A6
:04029C000C940000BE
:0402A0008FB9089575
:00000001FF
